:10000000EBC0000010C100000EC100000CC10000D8
:100010000AC1000008C1000006C1000004C10000C0
:1000200002C100000C948B0FFEC00000FCC0000059
:10003000FAC000000C940E0CF6C00000F4C00000E2
:10004000F2C00000F0C00000EEC00000ECC00000F4
:10005000EAC00000E8C00000E6C00000E4C0000004
:10006000E2C00000E0C000007E09840987098A0917
:100070008D0990099309960999099C099F09A2097C
:1000800020444F4E45203F3F0053743A392073655A
:100090006C0053743A382073656C0053743A3720FF
:1000A00073656C0053743A362073656C0053743A70
:1000B000352073656C0053743A342073656C0053BB
:1000C000743A332073656C0053743A322073656C54
:1000D0000053743A312073656C0053743A302073C6
:1000E000656C0053743A39202020200053743A384C
:1000F000202020200053743A372020202000537401
:100100003A36202020200053743A35202020200049
:1001100053743A34202020200053743A3320202096
:10012000200053743A32202020200053743A3120AA
:100130002020200053743A302020202000217638DF
:100140003E3E633332002167333200216533320093
:1001500021633332003E3E6333323E673332003E2A
:100160006733323E3E6333320073656C6563742ED1
:1001700000557365204220746F002053656C6563E1
:1001800074002044656C6976657279000642007FD0
:100190004120A54220437E00543530303E642D641A
:1001A0002D7231363E642D723872387238005435F3
:1001B00030303E642D3272383E642D7231363E64EA
:1001C0002D7231363E642D7231363E642D72387296
:1001D000387238001A101B1011241FBECFEFD8E060
:1001E000DEBFCDBF12E0A0E0B1E0E6E2FFE202C078
:1001F00005900D92A830B107D9F712E0A8E0B2E05F
:1002000001C01D92AF37B107E1F711E0C6EDD1E0B3
:1002100004C02297FE010E944316C43DD107C9F7CE
:100220006DD60C948717ECCEA8E0B0E0EAE1F1E0DF
:100230000C9418168C0127D39E012F5F3F4FAE01FF
:100240004D5F5F4FBE016B5F7F4FCE010796C3D3FB
:100250002D813E812115310571F48F819885892B7F
:1002600051F451E040E08B819C81892B09F050E0F2
:10027000852F942F02C080E090E049815A81452B60
:10028000B9F09CD365E5C801A5D479D30E949E0D31
:1002900081E491E00E94380E61E080E00E94700DE0
:1002A0008FE791E00E94380E2896E4E00C94341613
:1002B0004F815885452B49F069D36CE4C8018AD435
:1002C0000E949E0D89E491E038C0232B49F082D32F
:1002D00063E5C8017FD40E949E0D8EE491E02DC09D
:1002E0002B813C81232B49F05DD362E5C80172D498
:1002F0000E949E0D87E591E020C0892B09F49BCFD9
:100300000E949E0D8DE591E00E94380E61E080E034
:100310000E94700D85E691E00E94380E4FD365E58E
:10032000C80158D48EEA91E00E940C0CE7D68111E6
:10033000FDCF0E949E0D8DE691E00E94380E7BCF8E
:10034000A8E0B0E0E6EAF1E00C9418168C019BD22C
:100350009E012F5F3F4FAE014D5F5F4FBE016B5F50
:100360007F4FCE01079637D389819A81892B79F007
:1003700025D305D30E949E0D81E491E00E94380EA2
:1003800061E080E00E94700D8FE791E02EC04D810A
:100390005E812F8138854115510571F02115310598
:1003A00009F087C071E060E08B819C81892B09F4A2
:1003B00070E0872F962F7FC02115310521F48B81A6
:1003C0009C81892BC1F080E090E001151105B1F40A
:1003D000D6D20E949E0D84E791E00E94380E61E023
:1003E00080E00E94700D8EE791E00E94380E289602
:1003F000E4E00C94341681E090E0E7CFF8016081EE
:10040000623571F48B819C81892B09F43BC0CAD27F
:10041000F801018112810E949E0D87E591E019C0CB
:100420006C3459F4232B71F1B1D2F801018112819E
:100430000E949E0D89E491E00CC0633569F4452B60
:1004400009F1C8D2F801018112810E949E0D8EE44B
:1004500091E00E94380E7BCF6535A1F4892B91F095
:10046000ADD2F801018112810E949E0D88E891E0D1
:100470000E94380E8EEA91E00E940C0C3FD681114A
:10048000FDCF65CF7CD20E949E0D81E991E00E9454
:10049000380E61E080E00E94700D87E991E00E94D3
:1004A000380E8EEA91E00E940C0C28D68111FDCF07
:1004B0004ECF81E090E0892B09F449CF84CFFC0135
:1004C00020E030E02617370744F4A191B191A4173A
:1004D000B507F9F02F5F3F4FF5CFFB01EE0FFF1F80
:1004E000E80FF91F1616170654F0FB01EE0FFF1F59
:1004F000E80FF91F5183408381E090E00895329125
:100500002291421753078CF733832283615071097C
:10051000E9CF80E090E00895A0E0B0E0E2E9F2E009
:100520000C9412166C017B0100E010E0C0E0D0E0FA
:100530005B0181E0A81AB108CE15DF050CF05CC0A4
:100540000F3F8FEF180709F457C00E949E0D60E01F
:1005500080E00E94700D80EA91E00E94380E61E018
:1005600080E00E94700D86EA91E00E94380E88EECD
:1005700093E00E94C50F40E050E0B5018FEF9FEF80
:10058000E7D28C0197FDD8CF8E159F05ACF6AC0154
:10059000BE01C60194DF0197C1F40E949E0D60E088
:1005A00080E00E94700D8DE591E00E94380E61E0C0
:1005B00080E00E94700D8EEA91E00E94380E80ED7E
:1005C00097E00E94C50F2196B7CF0E949E0D60E074
:1005D00080E00E94700D85EB91E00E94380E61E092
:1005E00080E00E94700D8BEB91E00E94380E80ED50
:1005F00097E00E94C50FA0CFCE01CDB7DEB7EAE0ED
:100600000C942E16A4E1B0E0E8E0F3E00C940E1692
:100610006C015B01FE01319680E090E08C159D0538
:1006200024F4119211920196F9CF0E949E0D61E07F
:1006300080E00E94700D8FE891E00E942A0E60E039
:1006400080E00E94700D80911401909115010E942C
:100650002A0E00E010E088248394912C82E30E940B
:10066000890F803179F0803219F08230B1F52CC0D9
:1006700086E491E00E940C0C0C151D0574F50F5FCB
:100680001F4F2BC08BE491E00E940C0C0C151D0534
:1006900041F40E94480D0E949E0DEE24E394F12C3B
:1006A0001EC0F801EE0FFF1F81E090E08C0F9D1F30
:1006B000E80FF91F80819181019719F4118210824E
:1006C0000CC09182808209C080E591E00E940C0CF0
:1006D0001016110614F401501109E12CF12C60E000
:1006E00080E00E94700D0C151D05F4F43801660CB5
:1006F000771CE1E0F0E0EC0FFD1FE60DF71D8081B7
:10070000918160E0019739F480E00E94700DF3015F
:10071000E050FF4F06C080E00E94700DF301EC5ED8
:10072000FE4F8081918106C060E080E00E94700DE4
:1007300080E890E00E942A0E81E00E94500DE114B2
:10074000F10409F48BCF0E949E0DDE01119680E02A
:1007500090E020E030E02C153D0584F44D915D9152
:100760004130510541F4FC01EE0FFF1FEA0DFB1D66
:100770003183208301962F5F3F4FEDCF6496EEE0EB
:100780000C942A16EF92FF920F931F93CF93DF934F
:1007900000E010E0C0E0D0E08CE3E82EF12C80E136
:1007A0000E94FE0E81113CC00E949E0D60E080E020
:1007B0000E94700DC431D1051CF488ED91E01BC07E
:1007C000C832D10564F498D48C01BC01882777FD28
:1007D0008095982F0E941B0E80EE91E00CC0CC33C8
:1007E000D1055CF4043981E118071CF083EE91E037
:1007F00002C088EE91E00E94380ECE010196B7014A
:100800000E94B915EC0161E080E00E94700D80ED5E
:1008100091E00E94380E82E390E00E94C50FBFCFA6
:1008200084EF91E00E94C50FCDB7DEB7E6E00C94EF
:100830003216CF93DF9380ED97E00E945910CCEEF3
:10084000DFEFC832D10528F068ED7FEF88E290E055
:1008500004C068E270E088ED9FEF0E94FC0E81E02A
:100860000E94261084E190E00E94C50F2196CC33AF
:10087000D10539F760E070E080E090E00E94FC0E66
:10088000DF91CF910895AAE0B0E0E9E4F4E00C94A0
:100890000A16C12CD12C7601A12CB12C50E1452E89
:1008A00057E2552E612C712C64E1262E312C7CE30D
:1008B000872E912C61E0CE0101960E941F108C01C1
:1008C000005D1740C801AA2797FDA095BA2FC80E52
:1008D000D91EEA1EFB1EC701B601A30192010E94A8
:1008E000EE15B8016A197B09CB01880F991F860F95
:1008F000971F97FD0196FC01F595E795E20FF31F11
:10090000C801B1010E94B915E60FF71FED33F105DB
:1009100074F4E43C8FEFF8071CF0F7FD03C009C046
:10092000E4ECFFEF6CE370E0CF01CC9607C0ECE3A2
:10093000F0E0B4016E1B7F0B8CE390E00E94FC0E94
:100940008B819C818436910550F48D819E81843603
:10095000910528F48F8198858436910560F089810E
:100960009A81893C910538F489859A85893C91055D
:1009700010F458019FCF2A96E2E10C94261660E00D
:1009800070E080E090E00C94FC0E089560E570E06B
:1009900080EB9FEF0E94FC0E88EC90E00E94C50F58
:1009A000EECF089560EB7FEF80E590E00E94FC0EB3
:1009B00088EC90E00E94C50FE2CF089560EB7FEFD6
:1009C00080E590E00E94FC0E80E991E00E94C50F56
:1009D000D6CF08950895AAE0B0E0E1EFF4E00C94DA
:1009E00012166C017B015A018901FC0111821082EF
:1009F000FB0111821082FA0111821082F901118229
:100A0000108262E370E082E390E00E94FC0E82E3D9
:100A100090E00E94C50F61E0CE0101960E941F1078
:100A200089819A818536910528F081E090E0F60170
:100A30009183808389859A858536910528F081E0A8
:100A400090E0F5019183808368E270E088E290E0B5
:100A50000E94FC0E88EC90E00E94C50F61E0CE0180
:100A600001960E941F102B813C81293C310550F4D6
:100A70008D819E81893C910528F48F819885893CE0
:100A80009105A8F081E090E0F701918380832935FA
:100A9000324068F02D813E812935324040F02F816F
:100AA00038852935324018F0F801918380832A96E1
:100AB000EAE00C942E16CF93DF93EA010E949E0D7C
:100AC00060E080E00E94700D80EF91E00E94380E9F
:100AD00061E080E00E94700D87EF91E00E94380E87
:100AE00080ED97E00E94C50F80E10E94FE0E81110B
:100AF00028C00E949E0D60E083E0F2D7BE018827E7
:100B000077FD8095982F0E941B0E61E080E0E8D76A
:100B10008EEF91E00E94380E82E30E94FE0E82303A
:100B200041F421971C161D0614F0C1E0D0E082E0CC
:100B300003C0803219F421960E944A0F82E390E0AC
:100B4000D1CF80E10E944A0FCE01DF91CF9108956D
:100B5000EF92FF920F931F93CF93DF938C017B0152
:100B6000EA0180E10E94FE0E81112BC0E7D760E010
:100B700083E0B6D7BE01882777FD8095982F0E9425
:100B80001B0E61E080E0ACD78EEF91E00E94380E42
:100B900082E30E94FE0E823031F40C171D070CF424
:100BA000219782E007C0803239F4CE15DF050CF4BE
:100BB000219680E20E944A0F82E390E00E94C50FD6
:100BC000D0CF80E10E944A0FCE01CDB7DEB7E6E07C
:100BD0000C943216A1E0B0E0E0EFF5E00C941816AA
:100BE0008C0183E090E069830E946016FC016981BA
:100BF0000097D9F0608312821182D8012D913C9127
:100C000011972115310519F48D939C930EC0D901CC
:100C100011968D919C911297009711F09C01F7CF3E
:100C2000D9011296FC93EE9311972196E4E00C946F
:100C300034160F931F93CF93DF93EC01E881F98172
:100C4000309739F001811281CF010E94F816F80126
:100C5000F7CF19821882DF91CF911F910F910895DC
:100C60000F931F93CF93DF93DC01ED91FC913097AD
:100C700009F46BC0C0E0D0E000E010E08181928117
:100C8000009721F0E8018F01FC01F8CF209709F4CB
:100C90005CC0D8018C91853509F057C04881423538
:100CA00039F020E030E04C3429F48EE091E004C0CB
:100CB0002AE530E080E090E0820F931F453519F47B
:100CC00044EB50E002C040E050E0480F591FBA0129
:100CD0006C547F4F4081423539F020E030E04C3495
:100CE00029F48EE091E004C02AE530E080E090E055
:100CF000820F931F453519F444EB50E002C040E0E9
:100D000050E0840F951F860F971F68E671E00E94E0
:100D1000B9158A35910569F024F4892B71F483E5BE
:100D20000BC0843B910539F08E30914031F48CE456
:100D300003C082E501C085E58883CF010E94F816D3
:100D4000C8010E94F8161A821982DF91CF911F9173
:100D50000F910895A2E0B0E0E0EBF6E00C941616D7
:100D60008C017B011A821982F70181819281081717
:100D7000190779F00115110561F0F8016081CE01C4
:100D8000019628DFCE0101966BDFF8010181128107
:100D9000EBCF89819A812296E6E00C943216FC0111
:100DA00080E090E0309729F001960180F281E02DFB
:100DB000F9CF08950F931F93CF93DF93EC018B012D
:100DC000FC0180E090E0309741F02081253509F466
:100DD00001960180F281E02DF6CF880F991F0E94C5
:100DE0006016D8018D939C9380E090E0209791F05D
:100DF0002881253559F49C01220F331FD801ED912C
:100E0000FC91E20FF31FD183C08301960980DA8140
:100E1000C02DECCFDF91CF911F910F91089520E06D
:100E200030E0009769F02617370721F4FC01818133
:100E3000928108952F5F3F4FFC0181819281F1CF14
:100E400080E090E00895DC01ED91FC9111973097DE
:100E500019F46D937C93089581819281009711F02C
:100E6000FC01FACF728361830895A4E0B0E0EBE364
:100E7000F7E00C940E168C016B015A011C821B8248
:100E8000BE016F5F7F4F96DF4C017601C12CD12CE4
:100E900089819A81CA14DB04C4F4F701A191B1914C
:100EA0007F01AA0FBB1FA80FB91F6D907C90B301E3
:100EB000C80150DFBC01CE010396C5DFF3010181FB
:100EC0001281FFEFCF1ADF0AE3CFF401E150F048BF
:100ED000EE0FFF1FE80FF91F60817181C8013ADF33
:100EE000BC01CE010396AFDF89819A810E94F8167A
:100EF0008B819C812496EEE00C942A16A8E1B0E048
:100F0000E4E8F7E00C941616188E1F8A3BDC8FE598
:100F100091E082D413D684EC91E0AAD684EF91E0DC
:100F20000E94C50F86DC84E690E00E94C50FCE01CA
:100F300047967AD9BE016B5E7F4F8F89988D3ADFD5
:100F40008C01015011098D899E890E94F81688E94B
:100F500091E062D4D3D08111FDCFB801CE010196CA
:100F6000DBDA7C01EBD588E891E082D661E080E0B5
:100F7000B7D580ED91E07CD682E3CBD785E591E0D3
:100F80004BD4BCD08111FDCF88EE93E0FED7A701F2
:100F9000BE016F5F7F4F8F89988D67DFD1D9D7CF23
:100FA000EF92FF920F931F93982F803278F487E887
:100FB00080937A0080917C0080648076892B809376
:100FC0007C0080917A00806480937A0080917A001E
:100FD00086FDFCCFFB01EE24FF24870180917A007F
:100FE000806480937A0080917A0086FDFCCF8091A6
:100FF0007C0085FF04C08091790090E004C080915E
:10100000780090917900A0E0B0E0E80EF91E0A1F88
:101010001B1F319719F7CB019695879560347105A1
:1010200038F48E0D9F1D70E00E94A5159B010DC028
:10103000A0E0B0E0E80EF91E0A1F1B1F9B0140E074
:1010400050E0C801B7010E94CC15C9011F910F9152
:10105000FF90EF900895A0E0B0E02091280130913A
:10106000290140E050E0BC01CD010E948A159B019E
:10107000AC0180917C0085FF0BC0B901CA016158A9
:101080007F4F8F4F9F4F2FEF30E040E050E00AC07E
:10109000B901CA0161507E4F8F4F9F4F2FEF33E050
:1010A00040E050E00E94CC15C901089579DFD3CF0C
:1010B0001F9310917C0080917C008F7D80937C0039
:1010C00086E06AE070E0F2DFAC0115FD04C08091BB
:1010D0007C008F7D03C080917C00806280937C00C7
:1010E0009A01220F331F240F351F2F5F3F4F369574
:1010F0002795C9011F910895DBCF0895809135018F
:10110000882339F020E08091260290912702892BD4
:1011100009F021E0822F0895A0E0B0E0E2E9F8E0D4
:101120000C941216FC015B01C42E809125028823C9
:10113000C9F481E08093250210926F0083E28093CE
:10114000800081E1809381001092820080E197E22B
:10115000909389008093880010928B0010928A00EF
:10116000229A789410923501F7FD03C0DD24D394C0
:1011700003C0FF772AE0D22E80918100082F10E073
:10118000087F107088ECD89EC00111248E179F072D
:10119000C0F4EF0187E2E131F80710F0C0E1D7E2D7
:1011A000BE017695679580E090E060587946874665
:1011B0009F4F9E0140E050E00E94CC1579010160F4
:1011C00024C088E2D89E802D1124C82FD0E0CE17ED
:1011D000DF0708F4EF01BE01769567959E0140E0B8
:1011E00050E08AE0D81639F480E090E0605E734405
:1011F00081449F4F06C080E090E060537D4E8C4E4E
:101200009F4F0E94CC15790102608AE0D81639F40C
:10121000CE0105966AE070E00E94A515EB0183E01F
:10122000C83ED80711F4B5010FC0BE0180E090E0C0
:10123000950140E050E00E948A1528EE33E040E03E
:1012400050E00E94EE15B90110926F0000938100EA
:10125000F0928900E0928800E0918800F091890086
:10126000AC2DA03108F0AFE080E190E08A1B91093D
:1012700002C0F695E7958A95E2F7F0938B00E0932C
:101280008A0070930D0260930C0286B38FEF86BBC9
:1012900081E080936F00CDB7DEB7EAE00C942E16A4
:1012A000CF93DF93EB018F3F11F0442329F488EEB5
:1012B00093E0BE0140E067C0813110F420E005C03A
:1012C000282F2051203608F02FE5822F6CE00E9455
:1012D0009915382F682F70E084EF9FEF689FF00119
:1012E000699FF00D789FF00D1124E20FF11DEC3095
:1012F000F10538F4EC5CFF4F0C9441168CE991E059
:1013000023C080E090E020C085EB91E01DC08FEC11
:1013100091E01AC08AEE91E017C087E092E014C015
:1013200086E292E011C087E492E00EC089E692E086
:101330000BC08EE892E008C085EB92E005C08EED10
:1013400092E002C08AE093E0373071F002C0880F6B
:10135000991F6A95E2F7323020F005966AE070E056
:101360000BC0805090480BC036E0880F991F3A950B
:10137000E1F7029665E070E00E94A515CB014031CF
:1013800008F04FE0BE01C8DEDF91CF9108953091A3
:101390000A02E0912602F0912702332311F02491F2
:1013A00001C02081822F81548A3108F4205E2032CE
:1013B00059F480912602909127020196909327027A
:1013C00080932602019729F7822F0895CF93DF9308
:1013D000DEDF282FC0E0D0E01CC0CE0153E0880F34
:1013E000991F5A95E1F7CC0FDD1FC80FD91F822F27
:1013F000992787FD9095C80FD91FE0978091260205
:101400009091270201969093270280932602BFDFD6
:10141000282F822F80538A3000F3CE01DF91CF91A5
:101420000895A0E0B0E0E7E1FAE00C941016809097
:101430002A01B0900802BB2021F0609109026623C6
:1014400099F4A090090200912F0110913001E090D1
:101450002B01F0902C01C0912D01D0912E01C09054
:101460003101D090320103C18FEF70E040E018DF0E
:1014700010920902C0C194E0892EBB2404EF11E050
:1014800084E0E82EF12CC0EDD7E0B4E09B2EAFE075
:10149000CA2ED12C7CDF282F809126029091270222
:1014A00001969093270280932602263609F498C06D
:1014B0002736CCF42236A1F1233674F42E3361F1B1
:1014C0002F3334F42132B9F22C3309F006C126C08F
:1014D000213609F002C11CC1243609F451C0253659
:1014E0000CF066C035C02F3609F4BFC0203754F465
:1014F0002C3609F4A5C02D3609F4A5C0273609F00D
:10150000ECC086C0243709F4CEC0263709F4E2C007
:10151000223709F0E2C0ADC08394BCCF8A94BACF21
:10152000A0920902B09208021093300100932F019B
:10153000F0922C01E0922B01D0932E01C0932D014B
:1015400090922A01D0923201C09231012BE0F7C073
:10155000A0920902B09208021093300100932F016B
:10156000F0922C01E0922B01D0932E01C0932D011B
:1015700090922A01D0923201C092310120E0DFC066
:10158000A0920902B09208021093300100932F013B
:10159000F0922C01E0922B01D0932E01C0932D01EB
:1015A00090922A01D0923201C092310122E0C7C04C
:1015B000A0920902B09208021093300100932F010B
:1015C000F0922C01E0922B01D0932E01C0932D01BB
:1015D00090922A01D0923201C092310124E0AFC032
:1015E000A0920902B09208021093300100932F01DB
:1015F000F0922C01E0922B01D0932E01C0932D018B
:1016000090922A01D0923201C092310125E097C018
:10161000A0920902B09208021093300100932F01AA
:10162000F0922C01E0922B01D0932E01C0932D015A
:1016300090922A01D0923201C092310127E07FC0FE
:10164000C5DE7C0141C0A3DE8C3611F4BB2403C08F
:10165000AA24BB24B394809126029091270201967C
:10166000909327028093260215CFB0DE882E982C07
:1016700011CFA0920902B09208021093300100939A
:101680002F01F0922C01E0922B01D0932E01C093F8
:101690002D0190922A01D0923201C092310120E0B6
:1016A000FF24F3944DC092DEBC0180EC9DE50E94C6
:1016B000A515CB01EB01F3E0CC0FDD1FFA95E1F7A7
:1016C000880F991FC80FD91FCE01B7010E94A51519
:1016D0008B01E0CE7BDE6C01DDCEA0920902B092E0
:1016E00008021093300100932F01F0922C01E09238
:1016F0002B01D0932E01C0932D0190922A01D092FC
:101700003201C0923101109227021092260273C05A
:10171000A0920902B09208021093300100932F01A9
:10172000F0922C01E0922B01D0932E01C0932D0159
:1017300090922A01D0923201C092310129E0FF2417
:101740008CE0889EC0011124E22EE80E0AC0809130
:1017500026029091270201969093270280932602F9
:10176000E39415DE8B3299F3833289F30BC08091B9
:1017700026029091270201969093270280932602D9
:10178000EA9405DE8D3299F3C0912F01D09130019A
:101790008153883050F400912D0110912E0116DEF6
:1017A000BC01C8010E94A515EB018E010BC0809100
:1017B0002602909127020196909327028093260299
:1017C000C00FD11F16950795E2DD8E3281F380910F
:1017D0000802882339F0CE019695879580930902F7
:1017E000C81BD109FF2011F0EE24EA948E2DBE0112
:1017F0004091310155DDCDB7DEB7ECE00C942C16ED
:1018000010926F00909327028093260281E08093CC
:101810000A021092090205CEF3CF08951F920F928B
:101820000FB60F9211242F933F934F935F936F93B3
:101830007F938F939F93AF93BF93EF93FF93809189
:101840000C0290910D02019790930D0280930C026F
:10185000019609F510926F00789480918100887F3D
:1018600081608093810080E197E29093890080936A
:10187000880010928B0010928A0081E080933501DD
:101880008091260290912702892B29F080910B02EA
:10189000882309F4C6DDFF91EF91BF91AF919F912D
:1018A0008F917F916F915F914F913F912F910F9009
:1018B0000FBE0F901F901895EF92FF920F931F93FA
:1018C0006AB157985A98289AE0901202F090130241
:1018D000009114021091150220E030E041E050E048
:1018E000CA016F9364E06A95F1F76F910197C9F7A8
:1018F0005C9ACA016F9364E06A95F1F76F91019762
:10190000C9F789B15C98FA016F9364E06A95F1F7C1
:101910006F913197C9F75C9AFA016F9364E06A9509
:10192000F1F76F913197C9F75C9887FF0BC02C5F77
:101930003F4FC901A0E0B0E08E159F05A007B10799
:1019400008F4CECF6AB91F910F91FF90EF900895E0
:1019500065B190E0AC0141705070440F551F9C017F
:101960002670307053E0220F331F5A95E1F7422B57
:101970006D7C462B45B92BB18870907034E0880F90
:10198000991F3A95E1F72F77282B2BB95C9A81E0C4
:1019900090E0FC016F9364E06A95F1F76F913197E5
:1019A000C9F75C986F9364E06A95F1F76F910197BE
:1019B000C9F7089580E197E2A0E0B0E080931202B9
:1019C00090931302A0931402B0931502529A209A96
:1019D000549A8EE190E0E8D283E04CD186E090E02A
:1019E000E3D283E047D182E090E0DED283E042D1CF
:1019F00082E090E0D9D282E03DD182E090E0D4D282
:101A000088E241D088E03FD081E03DD086E03BD005
:101A10008CE039C080911602882321F481E0809304
:101A20001602C8CF0895BF92CF92DF92EF92FF9235
:101A30000F931F93082F162FF42EECDF3DDFB4B069
:101A4000C5B0DAB0EBB02898112311F05A9A01C052
:101A50005A9884B1826384B9579A81E0F81621F0CC
:101A6000802F82958F7074DF802F8F7071DFDAB8CE
:101A7000EBB8B4B8C5B81F910F91FF90EF90DF900D
:101A8000CF90BF90089560E042E0CDCF8CE0FBCFD7
:101A9000FDCF0895813011F48FE001C08EE0F3CFC7
:101AA000F9CF0895A4E0B0E0E8E5FDE00C94181645
:101AB000182F062F80E8898380EC8A8384E98B8342
:101AC00084ED8C83FE01E60FF11D8181810FDBDF48
:101AD00010931102009310022496E4E00C94341643
:101AE000E1CF089581E0CFDF80910E0290910F0247
:101AF000892B19F160E070E208C0E0910E02F091CC
:101B00000F02E40FF51F70836F5F462F50E0809146
:101B1000330190E001972091340130E0FC01E29F15
:101B2000C001E39F900DF29F900D112448175907B3
:101B300024F310921102109210020895D3CF089549
:101B400061E042E070CF6F927F928F929F92AF924E
:101B5000BF92CF92DF92FF920F93DF93CF93CDB7D7
:101B6000DEB72A970FB6F894DEBF0FBECDBF5B017C
:101B70006C010AE03E010894611C711CFA2CC6013C
:101B8000B5012AE030E040E050E00E94CC15C901E8
:101B9000DA015C016D0101504301800E911C80E36C
:101BA000F80EC601B5012AE030E040E050E0B2D7BF
:101BB000F61AF401F082A114B104C104D104F1F6C3
:101BC00007C0F601E00FF11D8081BADF0F5F04C08E
:101BD0006E010894C11CD11C0A3098F32A960FB6E6
:101BE000F894DEBF0FBECDBFCF91DF910F91FF9074
:101BF000DF90CF90BF90AF909F908F907F906F902D
:101C00000895EF92FF920F931F937B018C0197FF32
:101C10000AC010950095F094E094E11CF11C011DA0
:101C2000111D8DE28DDFC801B7018DDF1F910F916E
:101C3000FF90EF900895E5CF0895CF93DF93EC01E7
:101C400002C07EDF2196FE0184918823D1F7DF91C7
:101C5000CF910895F2CF0895CF93DF93EC0102C0A6
:101C600021966EDF88818823D9F7DF91CF9108957F
:101C7000F3CF089560E041E0D6CE282F883068F495
:101C800081E090E002C0880F991F2A95E2F7282F83
:101C9000AAE2B0E0EBE2F0E029C08E3080F430E060
:101CA0002850304081E090E002C0880F991F2A95AB
:101CB000E2F7282FA4E2B0E0E5E2F0E017C08531BA
:101CC00030F020E0A0E0B0E0E0E0F0E00FC030E075
:101CD0002E50304081E090E002C0880F991F2A9575
:101CE000E2F7282FA7E2B0E0E8E2F0E06F3F19F456
:101CF0008081822709C0662319F08081822B04C06D
:101D00009081822F8095892380838C91822B8C9364
:101D10000895E0EBF0E083EF8083808184BDE1EB08
:101D2000F0E082E08083808185BDE4EBF0E010820A
:101D30008081E3EBF0E08083808188BD88B587BD3A
:101D400086E060E09ADF85E060E097DF8BE060E0AE
:101D500094DF83E060E091CF80911702882321F423
:101D600081E080931702D5CF0895CF93DF93EC01E4
:101D7000F3DFD7FD02C020E004C0D095C195DF4F4E
:101D800021E0CE01CF3FD10519F014F08FEF90E0A4
:101D9000222319F018BC87BD02C088BD17BCDF9193
:101DA000CF910895CF93DF93EC01D6DFD7FD02C02A
:101DB00020E004C0D095C195DF4F21E0CE01CF3F98
:101DC000D10519F014F08FEF90E0222329F0109242
:101DD000B4008093B30004C08093B4001092B300A9
:101DE000DF91CF9108950F931F938B01BEDFC80140
:101DF000D9DF1F910F910895F6CF0895282F809174
:101E00001802882391F481E08093180284B18D7CBC
:101E100084B985B1826385B985E090E06F9364E011
:101E20006A95F1F76F910197C9F783B18095822385
:101E300008951F93CF93DF93182F80911802882362
:101E400091F481E08093180284B18D7C84B985B1CE
:101E5000826385B985E090E06F9364E06A95F1F75D
:101E60006F910197C9F7C12FD0E083B190E08C2327
:101E70009D23892BD1F38AE090E096D083B190E046
:101E80008C239D23892B89F383B18123DF91CF910B
:101E90001F910895CECF08951F93CF93DF93182FEE
:101EA00080911802882391F481E08093180284B114
:101EB0008D7C84B985B1826385B985E090E06F93AC
:101EC00064E06A95F1F76F910197C9F7C12FD0E0EF
:101ED00083B190E0809590958C239D23892BC1F34D
:101EE0008AE090E061D083B190E0809590958C235A
:101EF0009D23892B69F383B180958123DF91CF9155
:101F00001F9108951F93C8DF182F93DF812F1F9112
:101F10000895F8CF08952F928F939F932FB68091B5
:101F2000290290912A0201968093290290932A0215
:101F300090E080912B02891F80932B0290913102B7
:101F40009C5F909331028091300280519742C0F0A3
:101F5000909331028093300280912C0290912D0257
:101F6000019680932C0290932D0290E080912E0296
:101F7000891F80932E0280912F02891F80932F0248
:101F80002FBE9F918F912F90189528EE33E009C0B6
:101F9000F9016F9364E06A95F1F76F913197C9F792
:101FA00001970097A9F7089528EE33E009C0F901D9
:101FB0006F9364E06A95F1F76F913197C9F70197D4
:101FC0000097A9F70895A0E7B0E08C918E7F8C93DD
:101FD000E0EBF0E0808183608083E1EBF0E08081E2
:101FE000807F8083808182608083B89A8C918160B9
:101FF0008C937894089580913202882321F481E0B3
:1020000080933202E0CF0895F6DFE0E7F0E08081D0
:102010008E7F808310922C0210922D0210922E023D
:1020200010922F0210923102109230028081816052
:1020300080830895089583E392E035C408959C0158
:10204000462F83E392E0B90120E0A1C3682F83E328
:1020500092E040C50F93DF93CF9300D000D00F9252
:10206000CDB7DEB79C01962FDE011196E6E3F1E0D5
:1020700085E001900D928150E1F7BE016F5F7F4FC7
:10208000992329F083E392E045E00FEF04C083E356
:1020900092E045E003E174D083E392E059D0B4DFED
:1020A0000F900F900F900F900F90CF91DF910F91A5
:1020B000089560E0CFCFFC0111821082138212825A
:1020C0001582148217821682613118F080E18087B0
:1020D00001C06087208B483060F481E090E002C04E
:1020E000880F991F4A95E2F74AE250E02BE230E070
:1020F00029C04E3080F4242F30E02850304081E059
:1021000090E002C0880F991F2A95E2F744E250E060
:1021100025E230E017C0453130F080E040E050E08B
:1021200020E030E00FC0242F30E02E50304081E01E
:1021300090E002C0880F991F2A95E2F747E250E02D
:1021400028E230E0818733872287558744870895C6
:10215000DC011C96ED91FC911D97309781F08081F8
:1021600019969C911997892B80831A96ED91FC9171
:102170001B97908119968C9180958923808308956F
:10218000A0E0B0E0E5ECF0E14DC5EC015B01642FAF
:102190007901402F20E08FDFCE018F5B9F4FFC0144
:1021A0001082DE01AE5BBF4F1C92FE01ED5BFF4F64
:1021B0001082FF86EE8640E061E070E06F017D01F5
:1021C0008C014EC0F501E40FF11D8081883050F480
:1021D0009B0102C0220F331F8A95E2F7922F29E25A
:1021E00030E01FC08E3060F490E00897FB0102C021
:1021F000EE0FFF1F8A95E2F79E2F23E230E011C019
:10220000853120F090E020E030E00BC090E00E97A8
:102210009B0102C0220F331F8A95E2F7922F26E21C
:1022200030E0E42FF0E0DE01AE0FBF1F51969C932B
:10223000EE0FFF1FEC0FFD1F32A321A32332310548
:1022400011F4F80109C02632310511F4F70104C078
:102250002932310521F4F6018081982B90834F5F5C
:102260008885481708F4AECFCDB7DEB7EAE0F6C4EC
:10227000A0E0B0E0EDE3F1E1D3C4EC015B01CF5BA2
:10228000DF4F4991A9918880C354D04090E009C0A4
:10229000E92FF0E0EE0FFF1FEA0DFB1D1182108207
:1022A0009F5F88859817A0F384B1CF5BDF4F39918A
:1022B000832B84B987B12991822B87B98AB1988100
:1022C000C354D040892B8AB985B1832B85B988B195
:1022D000822B88B98BB1892B8BB9EAE0F0E06F9340
:1022E00064E06A95F1F76F913197C9F784B1309541
:1022F000832384B987B12095822387B98AB19095C9
:1023000089238AB985B1382335B988B1282328B9FA
:102310008BB198239BB99090B000C090B100809190
:10232000B00083608093B00082E08093B100D090D1
:10233000B20060E070E03AC05091B2005D19650FE4
:10234000711DE3B0E41609F04FC0F6B0FA1609F0BB
:102350004BC089B1881509F047C025C0A42FB0E053
:102360009D01220F331F8501020F131FF801808189
:102370009181892BA1F42C0F3D1FF90181A192A11C
:10238000FC01208130E0AC0FBD1F51968C9190E094
:1023900028233923232B19F4F801718360834F5FBD
:1023A00088854817D8F2D50E4E2DAF2D8E859F8586
:1023B0006817790708F29092B000C092B10020E04F
:1023C0000FC0E22FF0E0EE0FFF1FEA0DFB1D808132
:1023D0009181892B21F48E859F85918380832F5F46
:1023E0008885281770F305C0E3B0F6B089B040E0E7
:1023F000D7CFCDB7DEB7ECE02FC4A0E0B0E0E2E08D
:10240000F2E112C4EC018B01D0907C00E0907A00E4
:10241000C7B0F8B080917A0086FDFCCF90E009C08B
:10242000E92FF0E0EE0FFF1FE00FF11F1182108285
:102430009F5F88859817A0F397B18AA1809598230C
:1024400097B998B1892388B987E880937A0050E0DA
:1024500025C0FE01E40FF11D8189806480937C001A
:1024600080917A00806480937A0080917A0086FD62
:10247000FCCFE42FF0E0EE0FFF1FE00FF11F2091E3
:1024800078003091790080819181820F931F918330
:1024900080834F5F88854817E0F25F5F89A15817F6
:1024A00010F040E016C040E0F5CFE42FF0E0EE0F72
:1024B000FF1FE00FF11F69A1862F90E0959587958A
:1024C00020813181820F931F70E03FD3718360833D
:1024D0004F5F8885481748F3D0927C00E0927A00DD
:1024E000F8B8C7B8CDB7DEB7E8E0BAC3A0E2B0E04D
:1024F000EBE7F2E198C38C017B01D42E842F81504D
:102500008230B0F4D8011C96ED91FC911D97309764
:1025100079F0808119969C911997892B80831A965E
:10252000ED91FC911B97808119969C91892B80835A
:10253000F8018089882339F5C02EB12EC801B70172
:1025400097DED8011C96ED91FC911D97309781F094
:10255000808119969C911997892B80831A96ED9109
:10256000FC911B97908119968C918095892380838B
:10257000B2E0DB1609F050C08C2D9B2DBE016F5FC1
:102580007F4F76DE25C0C02EB12EC801B70135DFE2
:10259000D8011C96ED91FC911D97309781F08081B8
:1025A00019969C911997892B80831A96ED91FC912D
:1025B0001B97908119968C91809589238083B2E036
:1025C000DB1651F58C2D9B2DBE016F5F7F4F15DF04
:1025D00040E0BE016F5F7F4F1AC0E42FF0E0EE0FC6
:1025E000FF1F6701CE0EDF1EE60FF71FD8011E96F4
:1025F0002D913C911F9780819181281B390BF60109
:1026000080819181820F931F918380834F5FD801D6
:1026100018968C91481708F3A096E9E020C3A0E033
:10262000B0E0E4E1F3E1FDC2EC01162F072F942E98
:1026300022E0421711F0442351F48C819D81892BB3
:1026400009F4A1C08E819F81892B09F49CC0892D3A
:102650008150823050F488819981892B09F493C08C
:102660008A819B81892B09F48EC0CE01612F702F46
:10267000492D3CDF812F902F9C015901CC24DD2472
:1026800000E010E07AC081E0981669F4EA81FB81ED
:10269000E00FF11F20813181E881F981E00FF11F06
:1026A000408151813DC0AC81BD81992059F4EE81BA
:1026B000FF81E00FF11F20813181A00FB11F4D91EB
:1026C0005C912EC0A00FB11F8D919C91E881F98182
:1026D000E00FF11F20813181EE85FF85821793077E
:1026E00010F4AF0105C0A9014E0F5F1F481B590B25
:1026F000EE81FF81E00FF11F60817181EA81FB8132
:10270000E00FF11F80819181EE85FF8568177907C1
:1027100010F49F0105C09C012E0F3F1F261B370B95
:102720007901E41AF50AF1F0F5016081718180E028
:1027300090E09A0140E050E0621B730B840B950B14
:1027400028EE33E040E050E0E5D1970140E050E072
:1027500045D2C901F3E0293E3F0714F088EE93E02B
:1027600097FF02C080E090E0F501819391935F01B3
:102770000894C11CD11C0E5F1F4F888590E0C816BD
:10278000D9060CF480CFCDB7DEB7EBE066C2A4E08B
:10279000B0E0ECECF3E13EC28C01F62EE72E2A838A
:1027A0003EDFD8011896BC91B9832F2D3E2DC9016B
:1027B0008C01552444246624772443011C821B8207
:1027C000AA24BB246501B8EE2B2EB3E03B2E31C00A
:1027D000F801E080F180FA81FF2321F091012E19A8
:1027E0003F09790139ECE316F10414F044244394D1
:1027F00083E3E816F10494F0B701882777FD80950C
:10280000982FA601950186D1660E771E881E991E07
:10281000AB81BC81AE0DBF1DBC83AB83539488EEEE
:1028200093E0A0E0B0E0A80EB91ECA1EDB1E0E5F4A
:102830001F4F9981591660F2442021F5692F70E0ED
:1028400084EF91E0DC016A9FC0016B9F900D7A9F3D
:10285000900D1124845F914020917702309178028D
:10286000281739071CF440E050E019C088EE93E0C7
:10287000689FA001699F500D789F500D1124485EFC
:1028800053400DC0EB81FC819F0140E050E0C4014A
:10289000B30182D1A9013093780220937702CA0153
:1028A0002496E2E1D3C1CF93DF93EC018A819B812F
:1028B000009709F09DD28E819F81009709F098D2F0
:1028C00088819981009709F093D28C819D8100972E
:1028D00009F08ED2DF91CF910895A3E6B0E0E2E750
:1028E000F4E198C17C015B016A01A2962FAFA29727
:1028F000DA018D919C91892B09F5F701808590E093
:10290000880F991FDDD1D6018D939C93009709F410
:10291000DDC020E030E00CC0C901880F991FD6014E
:10292000ED91FC91E80FF91F118210822F5F3F4F4C
:10293000F701808590E02817390774F3D5018D9150
:102940009C91892B89F000E010E03E010894611C05
:10295000711C41E4242E312C2C0E3D1E31E2432EFD
:10296000512C4C0E5D1E27C0F701808590E0880F2A
:10297000991FA6D1D5018D939C93009709F4A6C009
:1029800020E030E011C0C901880F991FD501ED91F9
:10299000FC91E80FF91FD7011E968D919C911F970E
:1029A000918380832F5F3F4FF701808590E0281748
:1029B00039074CF3C8CFC701B301A2964FADA29718
:1029C00095DDD70118968C91882E9924A101F301E9
:1029D000A4965FAE4EAEA49760E070E034C00115DF
:1029E000110559F0A496AEADBFADA4972D913C91C1
:1029F000808191812817390758F480819181A496AC
:102A0000AEADBFADA4978D939C930115110541F018
:102A1000DA012D913C91808191818217930728F4EE
:102A200080819181DA018D939C936F5F7F4F4E5F20
:102A30005F4F3296A4968EAD9FADA4970296A49652
:102A40009FAF8EAFA497681579054CF20F5F1F4FAB
:102A50000A30110509F0AFCF40E050E020E030E04F
:102A60008E010F5B1F4FBE016F5D7F4F28C0F801C5
:102A7000E20FF31F80809180F601A081B181A20F47
:102A8000B31F8D919C9111978815990510F48D9223
:102A90009C92FB01E20FF31F80809180F501A081E1
:102AA000B181A20FB31F8D919C9111978816990641
:102AB00010F48D929C924F5F5F4F2E5F3F4FD70176
:102AC00018968C9190E0481759078CF2CD59DF4F3A
:102AD000E2E1BCC01F93CF93DF93EC01162F862F4A
:102AE0008150823038F4AE014E5F5F4FCE01BE019F
:102AF00021E0F3DE123011F0112341F4AE014A5F00
:102B00005F4FCE012496BE0120E0E7DEDF91CF913A
:102B10001F910895DB018F939F93B9D0BF91AF911F
:102B2000A29F800D911DA39F900DB29F900D112427
:102B30000895991B79E004C0991F961708F0961B19
:102B4000881F7A95C9F780950895AA1BBB1B51E190
:102B500007C0AA1FBB1FA617B70710F0A61BB70B0D
:102B6000881F991F5A95A9F780959095BC01CD01B2
:102B7000089597FB072E16F4009406D077FD08D031
:102B8000E4DF07FC05D03EF4909581959F4F0895B2
:102B9000709561957F4F0895A1E21A2EAA1BBB1B69
:102BA000FD010DC0AA1FBB1FEE1FFF1FA217B30719
:102BB000E407F50720F0A21BB30BE40BF50B661F2F
:102BC000771F881F991F1A9469F7609570958095F3
:102BD00090959B01AC01BD01CF010895052E97FB97
:102BE00016F400940FD057FD05D0D6DF07FC02D0B5
:102BF00046F408C050954095309521953F4F4F4F72
:102C00005F4F089590958095709561957F4F8F4F98
:102C10009F4F08952F923F924F925F926F927F92B3
:102C20008F929F92AF92BF92CF92DF92EF92FF92DC
:102C30000F931F93CF93DF93CDB7DEB7CA1BDB0B88
:102C40000FB6F894DEBF0FBECDBF09942A8839882D
:102C500048885F846E847D848C849B84AA84B98434
:102C6000C884DF80EE80FD800C811B81AA81B98140
:102C7000CE0FD11D0FB6F894DEBF0FBECDBFED0154
:102C80000895EE0FFF1F0590F491E02D099409D0EF
:102C9000A59F900DB49F900DA49F800D911D1124B0
:102CA0000895A29FB001B39FC001A39F700D811D25
:102CB0001124911DB29F700D811D1124911D089545
:102CC000CF93DF938230910510F482E090E0E091A1
:102CD0007D02F0917E0220E030E0A0E0B0E030978D
:102CE00039F14081518148175907B8F04817590701
:102CF00071F482819381109729F013969C938E939F
:102D000012972CC090937E0280937D0227C02115DC
:102D1000310531F04217530718F0A901DB0101C05A
:102D2000EF019A01BD01DF010280F381E02DD7CFD1
:102D300021153105F9F0281B390B2430310580F4B9
:102D40008A819B816115710521F0FB019383828348
:102D500004C090937E0280937D02FE01329644C0AF
:102D6000FE01E20FF31F81939193225031093983C1
:102D700028833AC020917B0230917C02232B41F4BE
:102D800020913D0130913E0130937C0220937B02E3
:102D900020913B0130913C012115310541F42DB7C3
:102DA0003EB740913F0150914001241B350BE0910B
:102DB0007B02F0917C02E217F307A0F42E1B3F0B7D
:102DC0002817390778F0AC014E5F5F4F241735079D
:102DD00048F04E0F5F1F50937C0240937B0281931B
:102DE000919302C0E0E0F0E0CF01DF91CF91089530
:102DF000CF93DF93009709F487C0FC0132971382C9
:102E00001282C0917D02D0917E02209781F42081B0
:102E10003181280F391F80917B0290917C028217AB
:102E2000930779F5F0937C02E0937B026DC0DE019D
:102E300020E030E0AE17BF0750F412964D915C9140
:102E400013979D014115510509F1DA01F3CFB383C1
:102E5000A28340815181840F951F8A179B0771F4CB
:102E60008D919C911197840F951F02969183808379
:102E700012968D919C91139793838283211531052E
:102E800029F4F0937E02E0937D023EC0D9011396AF
:102E9000FC93EE9312974D915D91A40FB51FEA1725
:102EA000FB0779F480819181840F951F0296D901E7
:102EB00011969C938E938281938113969C938E930B
:102EC0001297E0E0F0E08A819B81009719F0FE0103
:102ED000EC01F9CFCE01029628813981820F931F30
:102EE00020917B0230917C022817390769F43097D2
:102EF00029F410927E0210927D0202C01382128287
:102F0000D0937C02C0937B02DF91CF91089511E0B2
:102F1000C6EDD1E003C0FE01B6DE2296C83DD10762
:062F2000D1F7F894FFCF89
:102F2600DA00D100C800BF00B600AD00A4009B00C7
:102F36009200890034012B012201190110010701B9
:102F4600FE00F500EC00E3008813040400D007F44B
:102F5600010F000208010E0F10111200007F02205F
:102F6600004261636B204174004C656674005374C3
:102F760072616967687400526967687400416464C5
:102F8600726573730020466F756E64200055205479
:102F960075726E00204261636B20417420002044EC
:102FA600697370617463680044656C6976657279EB
:102FB6000020204E6F740045787065637465640068
:102FC600456E746572006164647265737300736143
:102FD60076656421004475706C2E006164647265C8
:102FE6007373210043616C6962726174696F6E006C
:102FF60050726573732042004261742043686B000F
:103006006D56004F6B6179005265706C61636500A7
:1030160053454C454354004E554D424552003C20C5
:08302600202A2A20203E0000B0
:00000001FF
