:1000000038C0000051C000004FC000004DC00000CB
:100010004BC0000049C0000047C0000045C00000C0
:1000200043C00000A9C500003FC000003DC0000063
:100030003BC0000039C0000037C0000035C00000E0
:1000400033C0000031C000002FC000002DC00000F0
:100050002BC0000029C0000027C0000025C0000000
:1000600023C0000021C000007F4120A54220437E24
:10007000000011241FBECFEFD8E0DEBFCDBF11E0DE
:10008000A0E0B1E0ECE6FEE002C005900D92AA3BD4
:10009000B107D9F711E0AAEBB1E001C01D92AB3D69
:1000A000B107E1F77AD1E0C6ABCFCF93DF93C0E0E1
:1000B000D0E080E1DBD4811126C03AD461E080E059
:1000C00009D488E690E0BFD460E080E003D4FE016C
:1000D000EE0FFF1FE050FF4F80819181C2D481E07D
:1000E000DBD382E347D581FF05C0219710F7C2E03B
:1000F000D0E0DFCF84FF03C0C7D31AD409C085FF87
:1001000007C0219605C0CE010196DF91CF910895D9
:10011000C330D1050CF0CBCFCCCFFC0120E030E0D8
:100120008FEF9FEF26173707ACF48F3F4FEF940701
:1001300019F4808191810AC0408151814F3FAFEF16
:100140005A0721F0481759070CF4CA012F5F3F4F97
:100150003296E8CF0895A0E0B0E0E0EBF0E0E2C531
:100160007C016B01EA01E4D360E083E0B3D3BE011C
:10017000882777FD8095982F57D461E080E0AAD337
:1001800080E391E06ED40CEB12E082E06FD4882320
:1001900089F1EC16FD060CF42197CAD360E083E0E8
:1001A00099D3BE01882777FD8095982F3DD461E0D3
:1001B00080E090D380E391E054D4C80117D502E3E6
:1001C00010E0E3CFCC15DD050CF42196B1D360E04F
:1001D00083E080D3BE01882777FD8095982F24D4B3
:1001E00061E080E077D380E391E03BD4C801FED4A6
:1001F00002E310E080E23AD48111E4CF00E010E0A5
:1002000080E134D4882329F080E17CD401E010E03F
:10021000F7CF0115110509F4B6CFCE01CDB7DEB782
:10022000E8E09CC5A0E0B0E0E7E1F1E07BC50AD6DC
:1002300024E630E040E050E04FD58B010F5F1F4FC8
:1002400077D360E080E046D389E391E00AD461E0AF
:1002500080E040D381E491E004D488EE93E0C6D4FA
:10026000C12CD12C7601C394C1E0D0E0AE0164E68C
:1002700070E081E090E06FDFEC015AD360E080E055
:100280000C171D076CF426D3BE01882777FD8095D7
:10029000982FCAD361E080E01DD388E491E00FC0BD
:1002A000C017D107B4F416D3BE01882777FD809517
:1002B000982FBAD361E080E00DD380E591E0D1D3EF
:1002C00080ED97E093D48FEFC81AD80AE80AF80AAD
:1002D000CDCF00D387E591E0C4D361E080E0FAD2CE
:1002E0008FE591E0BED3C701B6019ED380ED97E0C4
:1002F0007DD4C017D10739F7C601CDB7DEB7E8E026
:100300002DC5EF92FF920F931F93CF93DF9300E0E1
:1003100010E0C0E0D0E08CE3E82EF12C80E1A6D321
:10032000811134C005D360E080E0D4D2C431D1055E
:100330001CF483E691E01AC0C832D1055CF4B6D152
:100340008C01BC01882777FD8095982F6DD38BE6B3
:1003500091E00CC0CC33D10554F4043981E1180785
:100360001CF08EE691E002C083E791E07AD3CE01E3
:100370000196B7017CD4EC0161E080E0ABD28BE761
:1003800091E06FD382E390E031D4C8CF84EF91E065
:100390002DD4CDB7DEB7E6E0E3C4A8E2B0E0E2EDED
:1003A000F1E0C0C4AEDFFE013196CE0189968F0127
:1003B0002FEF3FEF21933193E817F907D9F7B8D220
:1003C00060E080E087D283E891E04BD361E080E099
:1003D00081D28AE891E045D382E3CCD3C12CD12CE1
:1003E000760182E343D3882331F02FEFC21AD20A79
:1003F000E20AF20AF6CF82E385D3C701B60125D51A
:1004000054DE8130910509F043C092D260E080E073
:1004100061D282E991E025D361E080E05BD289E995
:1004200091E01FD388EE93E0E1D341E050E064E136
:1004300070E081E090E08FDE7C01F4DE41E0E41AC0
:10044000F108EE0CFF1CF801EE0DFF1D208131813B
:100450002F3F4FEF340719F08217930714F491835D
:10046000808366D260E080E035D281EA91E0F9D203
:1004700061E080E02FD2F801EE0DFF1D60817181F7
:10048000882777FD8095982FCFD288EE93E064C0BF
:100490008230910509F042C04BD260E080E01AD270
:1004A00082E991E0DED261E080E014D289E991E056
:1004B000D8D288EE93E09AD341E050E064E170E056
:1004C00081E090E048DE01977C01EE0CFF1CE00E1D
:1004D000F11EF70180819181019671F429D260E0CB
:1004E00080E0F8D18AEA91E0BCD261E080E0F2D10C
:1004F00083EB91E0B6D22EC01BD260E080E0EAD15F
:1005000081EA91E0AED261E080E0E4D1F701608160
:100510007181882777FD8095982F1BC0039709F07C
:100520006FCF64E170E0C801F8DD7C018F3FFFEF21
:100530009F07A1F2FDD160E080E0CCD184EA91E098
:1005400090D261E080E0C6D1B701882777FD809521
:10055000982F6AD280ED97E049D352CFEF92FF9265
:100560000F931F93982F803278F487E880937A0056
:1005700080917C0080648076892B80937C008091C0
:100580007A00806480937A0080917A0086FDFCCFA7
:10059000FB01EE24FF24870180917A008064809320
:1005A0007A0080917A0086FDFCCF80917C0085FFE7
:1005B00004C08091790090E004C08091780090910F
:1005C0007900A0E0B0E0E80EF91E0A1F1B1F31976A
:1005D00019F7CB01969587956034710530F48E0D2F
:1005E0009F1D70E030D39B010CC0A0E0B0E0E80E8E
:1005F000F91E0A1F1B1F9B0140E050E0C801B70114
:1006000049D3C9011F910F91FF90EF900895A0E089
:10061000B0E0209106013091070140E050E0BC01BC
:10062000CD0102D39B01AC0180917C0085FF0BC002
:10063000B901CA0161587F4F8F4F9F4F2FEF30E0B4
:1006400040E050E00AC0B901CA0161507E4F8F4FAF
:100650009F4F2FEF33E040E050E01CD3C9010895D5
:100660007DDFD5CF1F9310917C0080917C008F7D22
:1006700080937C0086E06AE070E0F2DFAC0115FD5B
:1006800004C080917C008F7D03C080917C008062DB
:1006900080937C009A01220F331F240F351F2F5F98
:1006A0003F4F36952795C9011F910895DBCF0895D7
:1006B000EF92FF920F931F936AB157985A98289A16
:1006C000E090BE01F090BF010091C0011091C10106
:1006D00020E030E041E050E0CA016F9364E06A95A9
:1006E000F1F76F910197C9F75C9ACA016F9364E0C3
:1006F0006A95F1F76F910197C9F789B15C98FA0192
:100700006F9364E06A95F1F76F913197C9F75C9A3E
:10071000FA016F9364E06A95F1F76F913197C9F729
:100720005C9887FF0BC02C5F3F4FC901A0E0B0E091
:100730008E159F05A007B10708F4CECF6AB91F91A7
:100740000F91FF90EF90089565B190E0AC0141707A
:100750005070440F551F9C012670307053E0220FDB
:10076000331F5A95E1F7422B6D7C462B45B92BB1CF
:100770008870907034E0880F991F3A95E1F72F77D1
:10078000282B2BB95C9A81E090E0FC016F9364E028
:100790006A95F1F76F913197C9F75C986F9364E0B0
:1007A0006A95F1F76F910197C9F7089580E197E293
:1007B000A0E0B0E08093BE019093BF01A093C00180
:1007C000B093C101529A209A549A8EE190E01DD2C2
:1007D00083E049D186E090E018D283E044D182E002
:1007E00090E013D283E03FD182E090E00ED282E02D
:1007F0003AD182E090E009D288E241D088E03FD04F
:1008000081E03DD086E03BD08CE039C08091C201D0
:10081000882321F481E08093C201C8CF0895BF925C
:10082000CF92DF92EF92FF920F931F93082F162F14
:10083000F42EECDF3DDFB4B0C5B0DAB0EBB02898F1
:10084000112311F05A9A01C05A9884B1826384B975
:10085000579A81E0F81621F0802F82958F7074DF0F
:10086000802F8F7071DFDAB8EBB8B4B8C5B81F91BC
:100870000F91FF90EF90DF90CF90BF90089560E0D0
:1008800042E0CDCF8CE0FBCFFDCF0895813011F455
:100890008FE001C08EE0F3CFF9CF0895A4E0B0E07F
:1008A000E3E5F4E043C2182F062F80E8898380EC4B
:1008B0008A8384E98B8384ED8C83FE01E60FF11D2E
:1008C0008181810FDCDF1093BD010093BC01249670
:1008D000E4E048C2E3CF089581E0D1DF8091BA011E
:1008E0009091BB01892B19F160E070E208C0E091A2
:1008F000BA01F091BB01E40FF51F70836F5F462FC3
:1009000050E08091080190E001972091090130E0CA
:10091000FC01E29FC001E39F900DF29F900D112416
:100920004817590724F31092BD011092BC01089595
:10093000D3CF089561E042E072CF6F927F928F92A1
:100940009F92AF92BF92CF92DF92FF920F93DF936D
:10095000CF93CDB7DEB72A970FB6F894DEBF0FBEA0
:10096000CDBF5B016C010AE03E010894611C711C63
:10097000FA2CC601B5012AE030E040E050E08AD10F
:10098000C901DA015C016D0101504301800E911C27
:1009900080E3F80EC601B5012AE030E040E050E007
:1009A00043D1F61AF401F082A114B104C104D104B8
:1009B000F9F607C0F601E00FF11D8081BBDF0F5F84
:1009C00004C06E010894C11CD11C0A3098F32A9609
:1009D0000FB6F894DEBF0FBECDBFCF91DF910F9160
:1009E000FF90DF90CF90BF90AF909F908F907F90BF
:1009F0006F900895EF92FF920F931F937B018C01EC
:100A000097FF0AC010950095F094E094E11CF11C4A
:100A1000011D111D8DE28EDFC801B7018EDF1F9110
:100A20000F91FF90EF900895E5CF0895CF93DF9356
:100A3000EC0102C07FDF2196FE0184918823D1F76B
:100A4000DF91CF910895F2CF0895CF93DF93EC011A
:100A500002C021966FDF88818823D9F7DF91CF917B
:100A60000895F3CF089560E041E0D9CE282F80911A
:100A7000C301882391F481E08093C30184B18D7C0C
:100A800084B985B1826385B985E090E06F9364E0B5
:100A90006A95F1F76F910197C9F783B18095822329
:100AA00008951F93CF93DF93182F8091C30188235C
:100AB00091F481E08093C30184B18D7C84B985B1C8
:100AC000826385B985E090E06F9364E06A95F1F701
:100AD0006F910197C9F7C12FD0E083B190E08C23CB
:100AE0009D23892BD1F38AE090E08FD083B190E0F1
:100AF0008C239D23892B89F383B18123DF91CF91AF
:100B00001F910895CECF08951F93CF93DF93182F91
:100B10008091C301882391F481E08093C30184B163
:100B20008D7C84B985B1826385B985E090E06F934F
:100B300064E06A95F1F76F910197C9F7C12FD0E092
:100B400083B190E0809590958C239D23892BC1F3F0
:100B50008AE090E05AD083B190E0809590958C2304
:100B60009D23892B69F383B180958123DF91CF91F8
:100B70001F910895C9CF08952F928F939F932FB6F9
:100B80008091D1019091D20101968093D1019093EF
:100B9000D20190E08091D301891F8093D30190917D
:100BA000D9019C5F9093D9018091D80180519742DF
:100BB000C0F09093D9018093D8018091D401909195
:100BC000D50101968093D4019093D50190E0809156
:100BD000D601891F8093D6018091D701891F809308
:100BE000D7012FBE9F918F912F90189528EE33E05B
:100BF00009C0F9016F9364E06A95F1F76F9131973D
:100C0000C9F701970097A9F7089528EE33E009C0C6
:100C1000F9016F9364E06A95F1F76F913197C9F725
:100C200001970097A9F70895DB018F939F93A7D0B1
:100C3000BF91AF91A29F800D911DA39F900DB29F78
:100C4000900D11240895AA1BBB1B51E107C0AA1FD8
:100C5000BB1FA617B70710F0A61BB70B881F991F5D
:100C60005A95A9F780959095BC01CD01089597FB01
:100C7000072E16F4009406D077FD08D0E4DF07FCB9
:100C800005D03EF4909581959F4F0895709561959C
:100C90007F4F0895A1E21A2EAA1BBB1BFD010DC0B8
:100CA000AA1FBB1FEE1FFF1FA217B307E407F5071C
:100CB00020F0A21BB30BE40BF50B661F771F881FF8
:100CC000991F1A9469F760957095809590959B018E
:100CD000AC01BD01CF010895052E97FB16F40094D9
:100CE0000FD057FD05D0D6DF07FC02D046F408C070
:100CF00050954095309521953F4F4F4F5F4F089548
:100D000090958095709561957F4F8F4F9F4F089577
:100D10002F923F924F925F926F927F928F929F920B
:100D2000AF92BF92CF92DF92EF92FF920F931F93F9
:100D3000CF93DF93CDB7DEB7CA1BDB0B0FB6F894AA
:100D4000DEBF0FBECDBF09942A88398848885F84EA
:100D50006E847D848C849B84AA84B984C884DF805B
:100D6000EE80FD800C811B81AA81B981CE0FD11D3F
:100D70000FB6F894DEBF0FBECDBFED01089509D0C8
:100D8000A59F900DB49F900DA49F800D911D1124DF
:100D90000895A29FB001B39FC001A39F700D811D54
:100DA0001124911DB29F700D811D1124911D089574
:100DB0008F929F92AF92BF92CF92DF92EF92FF926B
:100DC000CF93DF93EC01688179818A819B816115E2
:100DD00071058105910521F464E279ED8BE597E0D9
:100DE0002DE133EF41E050E077DF49015A019B01EB
:100DF000AC01A7EAB1E4C3DF6B017C01ACEEB4EF58
:100E0000A50194012DD0C60ED71EE81EF91EF7FECF
:100E100006C081E0C81AD108E10880E8F80AC88253
:100E2000D982EA82FB82C701B6019F77DF91CF9119
:100E3000FF90EF90DF90CF90BF90AF909F908F90FA
:100E40000895B6CF80E191E0B3CF60931001709325
:100E5000110180931201909313010895B7FF8FCF72
:0C0E60008EDF821B930B0895F894FFCFE7
:100E6C0027011E011501881302080000DB01200078
:100E7C0001000000035365652042657374005572D0
:100E8C002073636F7265004E65772067616D650036
:100E9C003C20202A2A20203E00475545535320232E
:100EAC0000312D3130303A0032204869676821001A
:100EBC0032204C6F772100436F7272656374004768
:100ECC003A20004261742043686B006D56004F6BF2
:100EDC006179005265706C61636500507265737363
:100EEC0020420050524553532000544F20504C4147
:100EFC005900456E7465722000796F7572204944F3
:100F0C0000557220426573743A004E6F2067616D14
:0A0F1C00657300706C617965640074
:00000001FF
