:1000000044C000005EC000005CC000005AC0000098
:1000100058C0000056C0000054C0000052C000008C
:1000200050C000000C940B0C4CC000004AC00000F3
:1000300048C000000C94290944C0000042C00000E0
:1000400040C000003EC000003CC000003AC00000BC
:1000500038C0000036C0000034C0000032C00000CC
:1000600030C000002EC000003E6733323E3E633396
:100070003200543530303E642D642D7231363E648A
:100080002D72387238723800C30C11241FBECFEFA6
:10009000D8E0DEBFCDBF11E0A0E0B1E0E6E4F7E2DA
:1000A00002C005900D92A43BB107D9F722E0A4EB62
:1000B000B1E001C01D92AF31B207E1F778D40C94E2
:1000C00097139ECF809100018F5F80930001089568
:1000D000A8E0B0E0EEE6F0E00C9441128C013ED1D5
:1000E0009E012F5F3F4FAE014D5F5F4FBE016B5FC3
:1000F0007F4FCE010796D6D189819A8181309105B3
:1001000069F465E5C801C7D2C1D18AEF90E00E94C9
:10011000530CA0D12896E4E00C945D12892BF9F6DB
:100120004F8158854130510529F46CE4C801B3D2A0
:1001300097D1D5CF2D813E812130310529F463E55A
:10014000C801A9D2AED1CBCF8B819C8181309105E2
:1001500029F462E5C8019FD28ED1C1CF840F951FCB
:10016000820F931F892B09F0BACF65E5C80193D29E
:1001700042E362E370E089E30E94790987D1AFCF5F
:10018000A8E0B0E0E6ECF0E00C9441128C010E9493
:100190007F0A83E391E00E948C0AB6D00E947F0A16
:1001A0008DE391E00E948C0A61E080E00E94F90AF0
:1001B0008CE491E00E948C0AD1D09E012F5F3F4FCA
:1001C000AE014D5F5F4FBE016B5F7F4FCE01079663
:1001D00069D189819A818130910551F457D18AEF93
:1001E00090E00E94530C36D12896E4E00C945D1206
:1001F000892B51F58F819885892B21F48B819C81E6
:10020000892B11F18AEF90E00E94530CF801818153
:100210009281892B19F380818C3411F421D111C082
:10022000833511F43ED10DC0823511F424D109C0BB
:10023000853539F442E362E370E08BE30E9479098B
:1002400025D1F801018112810E947F0AA7CF8091F8
:1002500001018F5F809301010895EF92FF920F9348
:100260001F93CF93DF9300E010E0C0E0D0E08CE379
:10027000E82EF12C80E10E94090C81113CC00E9403
:100280007F0A60E080E00E94F90AC431D1051CF4C5
:1002900084E891E01BC0C832D10564F431D58C01EB
:1002A000BC01882777FD8095982F0E94DA0A8CE898
:1002B00091E00CC0CC33D1055CF4043981E118071E
:1002C0001CF08FE891E002C084E991E00E948C0A62
:1002D000CE010196B7010E94C311EC0161E080E0FC
:1002E0000E94F90A8EE591E00E948C0A82E390E078
:1002F0000E94530CBFCF84EF91E00E94530CCDB706
:10030000DEB7E6E00C945B12CF93DF9380ED97E0CD
:100310000E94C10CCCEEDFEFC832D10528F068EDA9
:100320007FEF88E290E004C068E270E088ED9FEF24
:100330000E94A40B81E00E948C0C84E190E00E945A
:10034000530C2196CC33D10539F760E070E080E0A2
:1003500090E00E94A40BDF91CF910895AAE0B0E055
:10036000E4EBF1E00C943312C12CD12C7601A12CDA
:10037000B12C50E1452E57E2552E612C712C64E1D1
:10038000262E312C7CE3872E912C61E0CE01019644
:100390000E94900C8C01005D1740C801AA2797FDB0
:1003A000A095BA2FC80ED91EEA1EFB1EC701B601C2
:1003B000A30192010E94F811B8016A197B09CB01CF
:1003C000880F991F860F971F97FD0196FC01F595E1
:1003D000E795E20FF31FC801B1010E94C311E60FB8
:1003E000F71FED33F10574F4E43C8FEFF8071CF0D0
:1003F000F7FD03C009C0E4ECFFEF6CE370E0CF0150
:10040000CC9607C0ECE3F0E0B4016E1B7F0B8CE3ED
:1004100090E00E94A40B8B819C818436910550F45E
:100420008D819E818436910528F48F81988584364C
:10043000910560F089819A81893C910538F489851C
:100440009A85893C910510F458019FCF2A96E2E1E4
:100450000C944F1260E070E080E090E00C94A40BEC
:1004600060E570E080EB9FEF0E94A40B88EC90E0C9
:100470000E94530CEFCF60EB7FEF80E590E00E948D
:10048000A40B88EC90E00E94530CE4CF60EB7FEF6C
:1004900080E590E00E94A40B80E991E00E94530C5B
:1004A000D9CF0895AAE0B0E0E8E5F2E00C943B1261
:1004B0006C017B015A018901FC0111821082FB0150
:1004C00011821082FA0111821082F90111821082C8
:1004D00062E370E082E390E00E94A40B82E390E08C
:1004E0000E94530C61E0CE0101960E94900C89811C
:1004F0009A818536910528F081E090E0F60191839C
:10050000808389859A858536910528F081E090E081
:10051000F5019183808368E270E088E290E00E94B8
:10052000A40B88EC90E00E94530C61E0CE01019690
:100530000E94900C2B813C81293C310550F48D8127
:100540009E81893C910528F48F819885893C91058D
:10055000A8F081E090E0F701918380832935324053
:1005600068F02D813E812935324040F02F81388559
:100570002935324018F0F801918380832A96EAE009
:100580000C945712CF93DF93EA01B9D760E080E073
:100590000E94F90A8CE991E0BFD761E080E00E94F7
:1005A000F90A83EA91E0B8D780ED97E00E94530CF6
:1005B00080E10E94090C811127C0A1D760E083E08F
:1005C0000E94F90ABE01882777FD8095982FF2D7FF
:1005D00061E080E00E94F90A8AEA91E09DD782E317
:1005E0000E94090C823041F421971C161D0614F05C
:1005F000C1E0D0E082E003C0803219F421960E946D
:10060000F00B82E390E0D2CF80E10E94F00BCE01AC
:10061000DF91CF910895EF92FF920F931F93CF93A5
:10062000DF938C017B01EA0180E10E94090C8111BA
:1006300029C065D760E083E0DCD7BE01882777FD5D
:100640008095982FB7D761E080E0D3D78AEA91E010
:1006500063D782E30E94090C823031F40C171D0726
:100660000CF4219782E007C0803239F4CE15DF0503
:100670000CF4219680E20E94F00B82E390E00E944D
:10068000530CD2CF80E10E94F00BCE01CDB7DEB784
:10069000E6E00C945B12A1E0B0E0E1E5F3E00C943D
:1006A00041128C0183E090E069830E947012FC018A
:1006B0006981009711F1608312821182D8013C9107
:1006C00011962C91A32FB22F80E090E0109731F07B
:1006D000CD0111960D90BC91A02DF8CF009731F46B
:1006E00031832283D801ED93FC9307C0DC0112967D
:1006F000FC93EE931197128211822196E4E00C9400
:100700005D120F931F93CF93DF93EC01E881F98182
:10071000309739F001811281CF010E940813F8014E
:10072000F7CF19821882DF91CF911F910F91089511
:10073000FC0180E090E0309729F001960180F28181
:10074000E02DF9CF0895EF92FF920F931F93CF936F
:10075000DF93EC017B01DB011D921C92FC0100E0A8
:1007600010E0309749F08081853511F40F5F1F4FFD
:100770000180F281E02DF5CFC801880F991F0E94FA
:100780007012F70191838083892BB1F080E090E0B3
:10079000209791F02881253559F49C01220F331FB1
:1007A000D701ED91FC91E20FF31FD183C083019635
:1007B0000980DA81C02DECCFC801CDB7DEB7E6E005
:1007C0000C945B12DC01ED91FC91309749F0818132
:1007D0009281009711F0FC01FACF72836183089532
:1007E000FC017183608308950F931F93CF93DF9370
:1007F000DC01ED91FC91309709F46BC0C0E0D0E0D2
:1008000000E010E081819281009721F0E8018F01E2
:10081000FC01F8CF209709F45CC0D8018C91853594
:1008200009F057C04881423539F020E030E04C34BF
:1008300029F48EE091E004C02AE530E080E090E009
:10084000820F931F453519F444EB50E002C040E09D
:1008500050E0480F591FBA016C547F4F4081423518
:1008600039F020E030E04C3429F48EE091E004C00F
:100870002AE530E080E090E0820F931F453519F4BF
:1008800044EB50E002C040E050E0840F951F860F1B
:10089000971F68E671E00E94C3118A35910569F0DF
:1008A00024F4892B71F483E50BC0843B910539F066
:1008B0008E30914031F48CE403C082E501C085E5BF
:1008C0008883CF010E940813C8010E9408131A826E
:1008D0001982DF91CF911F910F910895A2E0B0E0AE
:1008E000E4E7F4E00C943F128C017B011A82198238
:1008F000F701818192810817190761F0F801608181
:10090000CE010196C8DECE0101966EDFF8010181AD
:100910001281EECF89819A812296E6E00C945B12D7
:10092000A4E0B0E0E6E9F4E00C9437128C016B012E
:100930005A011C821B821A821982BE016F5F7F4F8F
:1009400002DF4C017601C12CD12C89819A81CA1415
:10095000DB04C4F4F701A191B1917F01AA0FBB1F81
:10096000A80FB91F6D907C90B301C801B7DFBC011F
:10097000CE01039627DFF30101811281FFEFCF1A29
:10098000DF0AE3CFF401E150F048EE0FFF1FE80F5C
:10099000F91F60817181C801A1DFBC01CE010396FE
:1009A00011DF8B819C812496EEE00C945312A6E01B
:1009B000B0E0EDEDF4E00C9437121E821D821C8233
:1009C0001B821A82198249DC88E690E0B1D497D55F
:1009D00083E391E0A1D598DC92D586E491E09CD5A3
:1009E00061E080E006D68FE491E096D5CE010596D1
:1009F0006FDB85D5C12CD12C01E010E085E591E0BD
:100A00008BD561E080E0F5D58EE591E085D580E17C
:100A1000F0D682E790E08CD47DD48111FDCFBE0169
:100A20006F5F7F4F8D819E818EDE5C01880F991FE5
:100A30000E9470127C01009709F382E0A81AB108A5
:100A40005ED560E080E0D5D586E691E065D561E0D1
:100A500080E0CFD58CE691E05FD588EE93E023D798
:100A600040E050E0B5018FEF9FEFD5DDF7019183B6
:100A7000808388EE93E017D7C114D10409F069C0D0
:100A80003ED560E080E0B5D586E691E045D561E0F1
:100A900080E0AFD58CE691E03FD588EE93E003D7B8
:100AA00040E050E0B5018FEF9FEFB5DD3C018F3F97
:100AB000FFEF9F0709F44AC020E030E048018FEFC4
:100AC000881A980A20173107F4F4F901EE0FFF1F76
:100AD000EE0DFF1D808191816816790689F40FD58E
:100AE00060E080E086D584E791E016D561E080E0A3
:100AF00080D58CE791E010D588EE93E0D4D69401B0
:100B00002F5F3F4FDFCF2017310709F0B5CFF90135
:100B1000EE0FFF1FEE0DFF1D71826082408151813B
:100B200092918291481759072CF4938382835183C1
:100B30004083F4CF89010F5F1F4F91E080E0A01642
:100B4000B1060CF090E0C92ED82E96CFCC24C394D9
:100B5000D12CA80141505109B7018D819E81E0DE61
:100B60009C838B8384EF91E09ED68B819C8108DBF4
:100B7000CE010396C6DD42CFECE7F0E080818F7DA9
:100B800080830895811101C0F7CF80917C0080623D
:100B900080937C00089580917C0085FB882780F9F4
:100BA0000895F9DF882321F08091790090E008957D
:100BB000809178009091790008958032A0F497E8B0
:100BC00090937A0090917C00662311F0906C02C0A3
:100BD0009F779064907E982B90937C0080917A0010
:100BE000806480937A000895A0E0B0E0EAEFF5E039
:100BF0000C943D12EB0160E0E0DF80917A0086FD0D
:100C0000FCCF8E01C12CD12C760180917A008064BA
:100C100080937A0080917A0086FDFCCFC2DFC80EF7
:100C2000D91EE11CF11C015011090115110569F7CC
:100C3000CE0196958795C034D10538F48C0D9D1D55
:100C4000BE010E94AF11CB010EC0A7019601280F73
:100C5000391F411D511DCA01B9019E0140E050E0FC
:100C60000E94D611C901CDB7DEB7E8E00C94591245
:100C7000CF92DF92EF92FF92A0910201B091030117
:100C80009C010E9414126B017C0185DF882359F0BE
:100C9000C701B60161587F4F8F4F9F4F2FEF30E054
:100CA00040E050E00AC0C701B60161507E4F8F4F4F
:100CB0009F4F2FEF33E040E050E00E94D611C90172
:100CC000FF90EF90DF90CF9008958EDFD1CF1F93EC
:100CD000CF93DF9360DF182F4FDF6AE070E086E08C
:100CE000F4DFEC01812F4EDFCE01880F991F8C0FAE
:100CF0009D1F019696958795DF91CF911F9108953D
:100D0000E6CF08959091B901E091B401F091B50159
:100D1000992311F0849101C080812FEB280F2A3193
:100D200010F4805E0895803249F49F012F5F3F4F99
:100D30003093B5012093B401EF2B31F708951F9341
:100D4000CF93DF93DFDFC0E0D0E01AE090ED980FA3
:100D50009A30B0F49E01129FE001139FD00D112430
:100D6000C80FD11D87FDDA95E0978091B40190916D
:100D7000B50101969093B5018093B401C3DFE6CF2E
:100D8000CE01DF91CF911F91089510926F0083E201
:100D90008093800081E1809381001092820080E145
:100DA00097E2909389008093880010928B001092B4
:100DB0008A00229A789408958F929F92AF92BF9260
:100DC000DF92EF92FF920F931F93CF93DF935C011B
:100DD0008B01D42E8091B601811104C081E08093F3
:100DE000B601D3DF10920D01B7FE05C0E894B7F845
:100DF0002AE0F22E02C0FF24F394E09081002E2D11
:100E0000287FE22E48ECF49EC00111248A159B0530
:100E1000E0F4E50151E1A51657E2B50610F0C0E196
:100E2000D7E2BE017695679580E090E060587946FC
:100E300087469F4F4E01A12CB12CA50194010E9421
:100E4000D61159018E2D816024C0C8E2FC9EC02DB0
:100E50001124D0E0CA15DB0508F4E501BE01769542
:100E600067959E0140E050E08AE0F81207C080E0FC
:100E700090E0605E734481449F4F06C080E090E044
:100E800060537D4E8C4E9F4F0E94D61159018E2D7E
:100E90008260882E2AE0F21207C0CE0105966AE031
:100EA00070E00E94AF11EB01C83E43E0D40759F057
:100EB0009801DE010E94141228EE33E040E050E079
:100EC0000E94F811890110926F0080928100B09207
:100ED0008900A092880020918800309189004D2DD2
:100EE000403108F04FE080E190E0841B9109A901B6
:100EF00002C0569547958A95E2F750938B00409330
:100F00008A001093BC010093BB0186B38FEF86BBB0
:100F100081E080936F00DF91CF911F910F91FF903F
:100F2000EF90DF90BF90AF909F908F900895CF93F8
:100F3000DF93EB018F3F11F0411105C040E0BE018E
:100F400088EE93E043C0813130F050EF580F5036B7
:100F500018F05FE501C050E0852F6CE00E94A311FE
:100F6000682F74EF760390011124250F311D2C306A
:100F7000310540F4F901EE0FFF1FEA5EFE4F2081BC
:100F8000318102C020E030E0873081F0082E02C0BD
:100F9000220F331F0A94E2F7823028F0C901059628
:100FA0006AE070E00CC0C90190580CC0C90136E07D
:100FB000880F991F3A95E1F7029665E070E00E946C
:100FC000AF11CB01403108F04FE0BE01F5DEDF91FB
:100FD000CF910895A2E0B0E0E0EFF7E00C94351275
:100FE00090900C018091B801882321F06091B701A5
:100FF000611117C077247394B0ECAB2EBDE5BB2E06
:101000001AE0612E04E0802E80EDC82E87E0D82EF5
:1010100094E0E92EF12C04EF11E02FE0422E512C48
:1010200014C070E040E088EE93E0C6DE1092B70195
:101030000CC18636CCF5813609F4A3C074F58C3327
:1010400009F45CC08E3379F493945CDE2091B40192
:101050003091B5012F5F3F4F3093B5012093B4011C
:10106000853639F74FC0813209F086C080920C0175
:10107000D0920B01C0920A01F0920901E09208019E
:10108000109307010093060150920501409204015C
:101090001092B801A4E09A2ED8CF833689F10CF4CF
:1010A00073C010E082E072C08D36A9F18CF48736EF
:1010B00079F15CF18C3609F05FC041DEBC019093A0
:1010C00009018093080180910A0190910B014DC0A4
:1010D0008237B1F144F48F3609F04EC030DE982EDD
:1010E00080930C01B2CF843771F1863709F044C088
:1010F00026DE9093050180930401A7CF9A94A5CF93
:1011000010E01FC010E084E041C010E085E03EC068
:1011100010E087E03BC0F6DD8C3619F41092B80180
:1011200004C07092B8011092B7012091B4013091BF
:10113000B5012F5F3F4F3093B5012093B40185CFA8
:1011400011E080E023C0FBDDBC01C5010E94AF11AE
:10115000669EC001679E900D112490930B018093B1
:101160000A0160910801709109010E94AF1170930A
:1011700007016093060169CF1092B5011092B40186
:1011800064C010E089E002C010E08BE0082F9CE012
:10119000999E000D1124B6DD982F977F933261F44C
:1011A0002091B4013091B5012F5F3F4F3093B501CD
:1011B0002093B4010F5FEFCF8D3269F42091B40119
:1011C0003091B5012F5F3F4F3093B5012093B401AB
:1011D000015098DDF1CF60910601709107018153B4
:1011E000883048F4E0900A01F0900B01A8DDBC01C2
:1011F000C7010E94AF117B01F694E79469837A835B
:1012000081DD69817A818E3269F42091B401309157
:10121000B5012F5F3F4F3093B5012093B4016E0DA0
:101220007F1DEACF8091B801882339F09B01369564
:1012300027952093B701621B710940910401112386
:1012400011F08FEF01C0802F72DE2296E0E10C9446
:1012500051121F920F920FB60F9211242F933F93AA
:101260004F935F936F937F938F939F93AF93BF93AE
:10127000EF93FF938091BB019091BC019C012150A1
:1012800031093093BC012093BB01892B09F51092E1
:101290006F00789480918100887F816080938100C5
:1012A00080E197E2909389008093880010928B00F0
:1012B00010928A0081E080930D018091B401909199
:1012C000B501892B29F08091BA01811101C082DE1C
:1012D000FF91EF91BF91AF919F918F917F916F910E
:1012E0005F914F913F912F910F900FBE0F901F90E4
:1012F00018951DCE089580910D01882349F081E055
:101300002091B4013091B501232B19F480E00895A8
:1013100081E00895F0CF089510926F009093B50189
:101320008093B40181E08093B9011092B70152CE4D
:10133000F3CF089581E090E06F9364E06A95F1F750
:101340006F910197C9F708950F931F93CF93DF9380
:101350001AB157985A98289AC0E0D0E0EBDF5C9A0F
:10136000E9DF09B15C98E6DF5C9AE4DF5C982496DB
:1013700007FF10C0AE0160E070E08091BD01909168
:10138000BE01A091BF01B091C001481759076A077B
:101390007B0720F31AB9DF91CF911F910F91089528
:1013A00095B1282F217030E0220F331F482F46704F
:1013B00068E0469FA0011124242B9D7C292B25B990
:1013C0009BB188708295807F9F77892B8BB95C9ABF
:1013D000B1DF5C98AFCFA0E0B0E0E1EFF9E00C94B2
:1013E0003E12C82FD62EE42E80911702811104C020
:1013F00081E0809317022BD0A7DF14B1D5B1FAB0EA
:101400000BB12898DD2011F05A9A01C05A9894B176
:10141000926394B9579A81E0E81621F08C2F829557
:101420008F70BEDF8C2F8F70BBDFFAB80BB914B989
:10143000D5B9CDB7DEB7E7E00C945A1242E060E0D0
:10144000CACF42E061E0C7CF41E060E0C4CF80E1B5
:1014500097E2A0E0B0E08093BD019093BE01A0931D
:10146000BF01B093C001529A209A549A8EE190E045
:101470001AD283E0E9DF86E090E015D283E0E4DF72
:1014800082E090E010D283E0DFDF82E090E00BD2D8
:1014900082E0DADF82E090E006D288E2CFDF88E007
:1014A000CDDF81E0CBDF86E0C9DF8CE0C7CF81E014
:1014B000C5DF8091C3019091C401892BF9F060E0F0
:1014C000A0E2262F30E070910E0180910F0190E094
:1014D0000197789FA001799F500D1124241735079B
:1014E0004CF4E091C301F091C401E20FF31FA0831B
:1014F0006F5FE7CF1092C1011092C2010895D7CF5C
:101500000895CF93DF93EC018991882311F099DF3F
:10151000FBCFDF91CF910895F4CF0895AAE0B0E01A
:10152000E3E9FAE0AAC71AE05AE0C52ED12CE12C73
:10153000F12C062FA701960139D7CA01B901115024
:10154000E1E0F0E0EC0FFD1FE10FF11D005D2AE08E
:10155000629F0019112400836115710581059105B1
:1015600041F71A3050F4E1E0F0E0EC0FFD1FE10F1D
:10157000F11D808166DF1F5FF4CF2A96E8E099C7EE
:10158000CF92DF92EF92FF926B017C0197FF0AC02E
:10159000F094E094D094C094C11CD11CE11CF11CC7
:1015A0008DE24FDFC701B601B9DFFF90EF90DF900A
:1015B000CF900895E5CF0895A5E0B0E0E1EEFAE020
:1015C00061C7182F80E8898380EC8A8384E98B8344
:1015D00084ED8C83FE01E60FF11D8181810F6D8307
:1015E0002DDF1093C1016D816093C2012596E3E068
:1015F00065C7E2CF0895883058F491E001C0990F93
:101600008A95EAF7892FAAE2B0E0EBE2F0E021C088
:101610008E3060F498EF980F81E001C0880F9A95A2
:10162000EAF7A4E2B0E0E5E2F0E013C0853160F44F
:1016300092EF980F81E001C0880F9A95EAF7A7E230
:10164000B0E0E8E2F0E005C080E0A0E0B0E0E0E07B
:10165000F0E06F3F19F49081982709C0662319F0D4
:101660009081982B04C02081982F9095922390838D
:101670009C91982B9C93089583EF8093B00084BD38
:1016800082E08093B10085BD1092B4001092B30047
:1016900018BC17BC60E086E0AEDF60E085E0ABDF41
:1016A00060E08BE0A8DF60E083E0A5CF80911802C6
:1016B000811104C081E080931802DECF0895CF939A
:1016C000DF93EC01F3DFD7FF05C0D195C195D109B8
:1016D00081E001C080E0CF3FD10519F014F0CFEFD9
:1016E000D0E0882319F018BCC7BD02C0C8BD17BC24
:1016F000DF91CF910895CF93DF93EC01D7DFD7FF30
:1017000005C0D195C195D10981E001C080E0CF3FEE
:10171000D10519F014F0CFEFD0E0882329F0109212
:10172000B400C093B30004C0C093B4001092B300DF
:10173000DF91CF910895CF93DF93EB01C0DFCE010E
:10174000DADFDF91CF910895F6CF089584B18D7CD3
:1017500084B985B1826385B985E090E06F9364E0D8
:101760006A95F1F76F910197C9F708958091190271
:10177000811104C081E080931902E8CF08951F937E
:10178000CF93DF93182FF2DFC12FD0E023B130E0E9
:10179000209530952C233D23232BC1F38AE090E044
:1017A00082D023B130E0209530952C233D23232B8C
:1017B00069F383B180958123DF91CF911F910895C3
:1017C000CF93C82FD3DF83B18C23E9F38AE090E075
:1017D0006AD083B18C23B9F383B18C23CF91089560
:1017E000EFCF0895CF93CBDFC82FEADF8C2FCF91B7
:1017F0000895F8CF0895A1E0B0E0E0E0FCE043C632
:101800008983B4DF93B19095898189232196E2E0A1
:1018100056C6F1CF08952F928F939F932FB6809144
:10182000CC019091CD0101968093CC019093CD0194
:1018300090E08091CE01891F8093CE019091C601E6
:101840009C5F9093C6018091C50180519742C0F082
:101850009093C6018093C5018091C7019091C80102
:1018600001968093C7019093C80190E08091C901CF
:10187000891F8093C9018091CA01891F8093CA0181
:101880002FBE9F918F912F90189528EE33E00197EE
:1018900048F0F9016F9364E06A95F1F76F91319721
:1018A000C9F7F5CF0895F1CF0895E0E7F0E0808122
:1018B0008E7F8083A0EBB0E08C9183608C93A1EB52
:1018C000B0E08C91807F8C938C9182608C93B89ADD
:1018D0008081816080837894089580911A028111BB
:1018E00004C081E080931A02E0CF0895F6DFE0E7BC
:1018F000F0E080818E7F80831092C7011092C80132
:101900001092C9011092CA011092C6011092C5012D
:101910008081816080830895682F8FEC91E0BFC340
:10192000462F20E0BC018FEC91E083C40F93CF934E
:10193000DF9300D000D01F92CDB7DEB79C0185E0C9
:10194000EEE2F1E0DE01119601900D928A95E1F749
:10195000662311F00FEF01C003E145E0BE016F5FA8
:101960007F4F8FEC91E0A8D08FEC91E07ED0BEDF6E
:101970000F900F900F900F900F90DF91CF910F91DC
:10198000089560E0D3CF8FEC91E0C3C46F9364E01F
:101990006A95F1F76F910197C9F70895FC011182DB
:1019A000108213821282158214821682683068F4C3
:1019B00089E290E0918380838BE290E0938382833D
:1019C0008AE290E0958384831FC06E3070F483E2D6
:1019D00090E09183808385E290E09383828384E228
:1019E00090E09583848368500FC0653198F486E257
:1019F00090E09183808388E290E09383828387E202
:101A000090E0958384836E5081E001C0880F6A95D1
:101A1000EAF786830895A7E0B0E0E0E1FDE031C594
:101A20008C01FC01118210821382128215821482B1
:101A300017821682613118F080E1808702C0FC01B4
:101A40006087F801208B642FCE010196A7DF8F817C
:101A5000F80181878B819C81938782878D819E810C
:101A6000958784872796E4E028C5FC01A485B58581
:101A7000109771F08C919185892B8C93A285B385F9
:101A80009C918185809589238C9388EC90E07ECF12
:101A90000895FC01A485B585109769F08C91918516
:101AA000892B8C93A285B3858C919185892B8C93FE
:101AB00088EC90E06BCF0895A7E0B0E0E1E6FDE0B0
:101AC000D5C47C014B01642F3901402F20E0A3DFF6
:101AD00087010F5B1F4FF80110826701F2E4CF0E00
:101AE000D11CF60110825701F3E4AF0EB11CF501D1
:101AF0001082F70177866686512CF701808558168B
:101B000048F5652C712CF401E60DF71D6081CE01BE
:101B1000019644DF2F81F701E60DF71D218B8981A6
:101B20009A81F301EE0FFF1FEE0DFF1D92A381A31B
:101B30008332910511F4F80108C08632910511F441
:101B4000F60103C0899721F4F5018081822B8083FF
:101B50005394D3CF2796EFE0A5C4A0E0B0E0E2EB2A
:101B6000FDE086C4EC015B016C0181E4C80ED11C70
:101B7000F60180807E01F2E4EF0EF11CF701708027
:101B80008E010D5B1F4FF801908080E098858917CA
:101B900048F4F501E80FF11DE80FF11D11821082E4
:101BA0008F5FF4CF84B1F6019081892B84B987B11E
:101BB000F7019081892B87B98AB1F8019081892B2F
:101BC0008AB985B1F6019081892B85B988B1F70171
:101BD0009081892B88B98BB1F8019081892B8BB9C1
:101BE0008AE090E0D3DE94B1F6018081809589236C
:101BF00084B997B1F70180818095892387B99AB11B
:101C0000F8018081809589238AB995B1F601808198
:101C10008095892385B998B1F701808180958923C2
:101C200088B99BB1F8018081809589238BB9E090B8
:101C3000B000D090B1008091B00083608093B0007C
:101C400082E08093B1004091B20080E090E02E8568
:101C50003F858217930720F5C090B2002C2D241BDE
:101C6000820F911D03B1081132C0F6B0F7102FC0DA
:101C700029B129112CC010C0212F30E0A901440F37
:101C8000551FF501E40FF51F60817181672B21F16C
:101C90001F5F2885121780F37F2C802E4C2DD7CF05
:101CA000E092B000D092B10020E08885281730F58E
:101CB000F501E20FF11DE20FF11D80819181892B69
:101CC00021F48E859F85918380832F5FEECF03B1B2
:101CD000F6B099B010E0DDCFDE01A40FB51F9196EC
:101CE0000D90BC91A02D4C91DE01A20FB31F519617
:101CF0002C91422369F691838083CACFCDB7DEB79A
:101D0000EDE0D2C3EF92FF920F931F93CF93DF9337
:101D1000FC019B01F0907C0000917A0047B118B162
:101D200080917A0086FDFCCF80E09085891748F489
:101D3000D901A80FB11DA80FB11D1D921C928F5F74
:101D4000F4CF97B182A18095892387B998B182A1F8
:101D50008095892388B987E880937A00E12C81A156
:101D6000E81610F0E12C29C050E08085581718F5CE
:101D7000A52FB0E0EF01CA0FDB1F89898064809333
:101D80007C0080917A00806480937A0080917A0050
:101D900086FDFCCF6091780070917900AA0FBB1F7F
:101DA000A20FB31F8D919C911197860F971F8D9352
:101DB0009C935F5FDACFE394D2CF8085E81698F4E6
:101DC000E901CE0DD11DCE0DD11D61A170E0CB0179
:101DD00095958795A881B9818A0F9B1FC0D2798379
:101DE0006883E394EACFF0927C0000937A0018B9FC
:101DF00047B9CDB7DEB7E6E05EC3A0E2B0E0E2E00F
:101E0000FFE03CC38C017B01D42E8FEF840F823026
:101E100010F4C8013EDED80150968C91B7018111B3
:101E20000DC0C8019ADEC80120DEB2E0DB1236C068
:101E3000BE016F5F7F4FC80190DE0CC0C80162DF3A
:101E4000C80113DEE2E0DE1229C0BE016F5F7F4FE2
:101E5000C80158DF40E0F80180854817F8F4842F66
:101E600090E0880F991FF701E80FF91F21E030E09B
:101E70002C0F3D1F820F931FD8011E962D913C9170
:101E80001F97DC018D919C91281B390B80819181DA
:101E9000820F931F918380834F5FDDCFA096E7E091
:101EA00009C32F923F925F926F927F928F929F927F
:101EB000AF92BF92CF92DF92EF92FF920F931F9358
:101EC000CF93DF93CDB7DEB7C056D1090FB6F894E4
:101ED000DEBF0FBECDBF8C014B015A01522EDA017D
:101EE0008D919C91892B31F0F40180819181892B16
:101EF000E9F423C0D80118968C9190E0880F991FBF
:101F0000EFD2F50191838083009709F4AFC0FC0103
:101F100020E030E0D80118968C9190E0281739071E
:101F20001CF7119211922F5F3F4FF4CFE12CF12C4F
:101F30006E01B1E2CB0ED11C20C0F801808590E08B
:101F4000880F991FCDD2D4018D939C93009709F4EB
:101F50008DC0FC0120E030E0D80118968C9190E013
:101F6000281739071CF7D8011E968D919C911F9751
:101F7000819391932F5F3F4FEFCF452DBE016F5B54
:101F80007F4FC8013ADFF8016084712CFE01EF5BDE
:101F9000FF4FC6019E012F5F3F4F190120E030E047
:101FA000261537054CF5E114F10489F0DC016D913B
:101FB0007C91408151816417750748F0D1016D9182
:101FC0007C91408151814617570748F00DC04081F0
:101FD0005181DC014D935C93E114F10479F7408168
:101FE0005181D1014D935C932F5F3F4FB2E02B0E97
:101FF000311C32960296D4CFEFEFEE1AFE0AFAE0C9
:10200000EF16F10409F0B9CF9E012F5F3F4F790120
:10201000360180E090E0F801208530E082179307D8
:102020002CF5D7012D913D917D01B3016C197D09EE
:10203000D501ED91FC91E60FF71F408151814217C8
:10204000530710F431832083F301219131913F0133
:10205000D401ED91FC91E60FF71F408151812417C7
:10206000350710F4318320830196D5CFC05ADF4F56
:102070000FB6F894DEBF0FBECDBFDF91CF911F9199
:102080000F91FF90EF90DF90CF90BF90AF909F9017
:102090008F907F906F905F903F902F9008951F9347
:1020A000CF93DF93EC01162F8FEF860F823018F05D
:1020B000662351F012C021E0AE014E5F5F4FBE01BA
:1020C000CE01EFDE123049F4AE014A5F5F4FBE0130
:1020D0006C5F7F4F20E0CE01E4DEDF91CF911F9156
:1020E0000895A0E0B0E0E6E7F0E1C6C1EC018B01A5
:1020F000B42E842F8D7F51F48C819D81892B09F41E
:1021000094C08E819F81892B09F48FC08FEF8B0D36
:10211000823050F488819981892B09F486C08A81A4
:102120009B81892B09F481C04B2DB801CE0165DE5E
:10213000780100E010E0C12CD12C888590E0C81611
:10214000D9060CF072C081E0B8120AC0EA81FB81A6
:10215000E00FF11F0190F081E02DA881B9810DC041
:102160008C819D812E813F81B1100CC0F901E00F5F
:10217000F11F0190F081E02DDC01A00FB11F8D91C6
:102180009C9128C0FC01E00FF11F40815181E88142
:10219000F981E00FF11F80819181EE85FF8548175D
:1021A000590710F4CF0104C08E0F9F1F841B950B9D
:1021B000D901A00FB11F2D913C91AA81BB81A00F25
:1021C000B11F4D915C912417350720F0E40FF51FE6
:1021D000E21BF30BE81BF90B99F0D7012D913C9111
:1021E00040E050E0281B390B41095109A8EEB3E04B
:1021F0002AD19F0140E050E0FBD037FD0AC002C069
:1022000020E030E0293EB3E03B072CF028EE33E03D
:1022100002C020E030E0F701219331937F01FFEF0E
:10222000CF1ADF0A0E5F1F4F88CFCDB7DEB7E9E0C8
:102230003FC1A0E0B0E0EEE1F1E115C1EC018B019E
:10224000822E4FDF2884E801412C512C320100E01E
:1022500010E0C12CD12C7601312C912C58EEA52EFA
:1022600053E0B52E921419F1E991F991882021F0EB
:10227000C5018E1B9F0BFC01E93CF10524F4E333FF
:10228000F1056CF002C033243394DF01A301920105
:10229000E4D0C60ED71EE81EF91E0E0F1F1F939422
:1022A00098EE490E93E0591E611C711CDBCF311072
:1022B0001EC0492D50E04150510924EF31E0429FAA
:1022C000C001439F900D529F900D11242091130245
:1022D0003091140228173907ACF088EE93E0489F3C
:1022E0009001499F300D589F300D11240DC0980169
:1022F00040E050E0C701B60159D03093140220935A
:10230000130202C020E030E0C901CDB7DEB7E2E140
:10231000C6C0CF93DF93EC018A819B81009709F0BF
:1023200077D18E819F81009709F072D18881998140
:10233000009709F06DD18C819D81009709F068D1DB
:10234000DF91CF910895991B79E004C0991F9617EA
:1023500008F0961B881F7A95C9F780950895AA1BE7
:10236000BB1B51E107C0AA1FBB1FA617B70710F080
:10237000A61BB70B881F991F5A95A9F780959095B2
:10238000BC01CD01089597FB072E16F4009406D0EA
:1023900077FD08D0E4DF07FC05D03EF490958195E9
:1023A0009F4F0895709561957F4F0895A1E21A2E71
:1023B000AA1BBB1BFD010DC0AA1FBB1FEE1FFF1FE9
:1023C000A217B307E407F50720F0A21BB30BE40B39
:1023D000F50B661F771F881F991F1A9469F7609580
:1023E0007095809590959B01AC01BD01CF0108953A
:1023F000052E97FB16F400940FD057FD05D0D6DFBD
:1024000007FC02D046F408C05095409530952195C0
:102410003F4F4F4F5F4F0895909580957095619510
:102420007F4F8F4F9F4F0895A29FB001B39FC00170
:10243000A39F700D811D1124911DB29F700D811DF0
:102440001124911D0895F0DFA59F900DB49F900D6C
:10245000A49F800D911D11240895B7FFF4CFF3DFE1
:10246000821B930B08952F923F924F925F926F922F
:102470007F928F929F92AF92BF92CF92DF92EF9214
:10248000FF920F931F93CF93DF93CDB7DEB7CA1B95
:10249000DB0B0FB6F894DEBF0FBECDBF09942A88C0
:1024A000398848885F846E847D848C849B84AA8468
:1024B000B984C884DF80EE80FD800C811B81AA81F5
:1024C000B981CE0FD11D0FB6F894DEBF0FBECDBFC0
:1024D000ED010895EE0FFF1F0590F491E02D099492
:1024E000CF93DF938230910510F482E090E0E09189
:1024F0001D02F0911E0220E030E0A0E0B0E0309735
:1025000039F14081518148175907B8F048175907E8
:1025100071F482819381109729F013969C938E9386
:1025200012972CC090931E0280931D0227C0211584
:10253000310531F04217530718F0A901DB0101C042
:10254000EF019A01BD01DF010280F381E02DD7CFB9
:1025500021153105F9F0281B390B2430310580F4A1
:102560008A819B816115710521F0FB019383828330
:1025700004C090931E0280931D02FE01329644C057
:10258000FE01E20FF31F81939193225031093983A9
:1025900028833AC020911B0230911C02232B41F466
:1025A000209112013091130130931C0220931B02E1
:1025B00020911001309111012115310541F42DB701
:1025C0003EB74091140150911501241B350BE09149
:1025D0001B02F0911C02E217F307A0F42E1B3F0B25
:1025E0002817390778F0AC014E5F5F4F2417350785
:1025F00048F04E0F5F1F50931C0240931B028193C3
:10260000919302C0E0E0F0E0CF01DF91CF91089517
:10261000CF93DF93009709F487C0FC0132971382B0
:102620001282C0911D02D0911E02209781F4208158
:102630003181280F391F80911B0290911C02821753
:10264000930779F5F0931C02E0931B026DC0DE0145
:1026500020E030E0AE17BF0750F412964D915C9128
:1026600013979D014115510509F1DA01F3CFB383A9
:10267000A28340815181840F951F8A179B0771F4B3
:102680008D919C911197840F951F02969183808361
:1026900012968D919C911397938382832115310516
:1026A00029F4F0931E02E0931D023EC0D901139657
:1026B000FC93EE9312974D915D91A40FB51FEA170D
:1026C000FB0779F480819181840F951F0296D901CF
:1026D00011969C938E938281938113969C938E93F3
:1026E0001297E0E0F0E08A819B81009719F0FE01EB
:1026F000EC01F9CFCE01029628813981820F931F18
:1027000020911B0230911C022817390769F4309779
:1027100029F410921E0210921D0202C0138212822E
:10272000D0931C02C0931B02DF91CF91089510E05B
:10273000C8E8D0E003C0FE01CFDE2296CA38D10738
:06274000D1F7F894FFCF71
:10274600010188130F00F4010400D00704010802F8
:1027560000001F0220009C01B501CF01EA0107021B
:102766002602470269028E02B502DE020A030E0F36
:1027760010111243616C6962726174650044656C84
:102786006976657269004C6561726E696E670054A0
:102796007261636B0044656C69766572790050728C
:1027A600657373204200456E7465720041646472FD
:1027B60065737300416C726561647900456E74657A
:1027C600726564004261742043686B006D56004F69
:1027D6006B6179005265706C6163650053454C45C9
:1027E6004354004E554D424552003C20202A2A2093
:0427F600203E000081
:00000001FF
