:1000000033C000004CC000004AC0000048C00000DF
:1000100046C0000044C0000042C0000040C00000D4
:100020003EC0000086C500003AC0000038C0000095
:1000300036C0000034C0000032C0000030C00000F4
:100040002EC000002CC000002AC0000028C0000004
:1000500026C0000024C0000022C0000020C0000014
:100060001EC000001CC0000011241FBECFEFD8E04E
:10007000DEBFCDBF11E0A0E0B1E0ECEEFDE002C0DC
:1000800005900D92AE3CB107D9F721E0AEECB1E09E
:1000900001C01D92A23EB207E1F77CD2A5C6B0CF47
:1000A000809100018F5F809300010895A0E0B0E08F
:1000B000EBE5F0E004C66C015B017A01FA01C08156
:1000C000D18184EF91E07DD55AD460E083E0D1D432
:1000D000BE01882777FD8095982FACD461E080E041
:1000E000C8D48FE091E058D404EF11E082E01FD52E
:1000F000882389F1CC16DD060CF4219740D460E00A
:1001000083E0B7D4BE01882777FD8095982F92D4DD
:1001100061E080E0AED48FE091E03ED4C80151D5DB
:1001200002E310E0E3CFCA15DB050CF4219627D4D7
:1001300060E083E09ED4BE01882777FD8095982FEC
:1001400079D461E080E095D48FE091E025D4C801B6
:1001500038D502E310E080E2EAD48111E4CF00E078
:1001600010E080E1E4D4882329F080E1D0D401E0DC
:1001700010E0F7CF0115110509F4B6CFF701D183CF
:10018000C083CDB7DEB7EAE0B6C5CF93DF93FC01FD
:1001900024E130E0CFEFDFEF41915191C417D50753
:1001A0000CF4EA012150310921153105A9F7FC01B0
:1001B00080E090E0219131912C173D072CF42F3FE6
:1001C0004FEF340709F0E90101968431910591F769
:1001D000CF3F8FEFD80789F0D2D360E080E049D4D9
:1001E00088E191E0D9D361E083E043D4BE01882760
:1001F00077FD8095982F1ED40DC0C1D360E080E0BC
:1002000038D481E291E0C8D361E080E032D48AE260
:1002100091E0C2D380ED97E0D4D4DF91CF910895DF
:10022000CF93ADD360E080E024D481E391E0B4D3F8
:1002300061E080E01ED486E391E0AED388EE93E0E7
:10024000C0D49DD360E083E014D48DE391E0A4D3C7
:1002500061E081E00ED481E491E09ED388EE93E0EA
:10026000B0D48DD360E080E004D48DE591E094D3E8
:1002700061E083E0FED385E691E08ED388EE93E0E3
:10028000A0D482E354D4811129C079D360E080E006
:10029000F0D388E491E080D361E083E0EAD380E5A5
:1002A00091E07AD388EE93E08CD482E340D481113C
:1002B00015C065D360E080E0DCD385E591E06CD3C8
:1002C00061E083E0D6D38BE191E066D388EE93E0E2
:1002D00078D482E32CD4882309F4C3CF82E327D4D3
:1002E000C82F15D4C03139F0C03241F0C23049F0C6
:1002F00080E090E008C082E090E005C083E090E0FC
:1003000002C081E090E0CF910895CF93DF93EC019C
:1003100081E090E09983888332D360E080E0A9D3C4
:100320008AE691E039D384EF91E04BD4AE0164E1E9
:1003300070E081E090E0BADE88819981DF91CF9111
:100340000895A0E0B0E0E6EAF1E0B7C4EC018B016B
:100350007A012ED524E630E040E050E07DD45B0108
:100360002FEFA21AB20AC701D0DF4C0184EF91E04F
:1003700028D4C40181509048880F991FC80FD91FF5
:10038000CC24CA94DC2CEE24E394F12CCA14DB04B4
:1003900009F43FC0F4D260E080E06BD383E791E0E2
:1003A000FBD284EF91E00DD4A80164E670E081E017
:1003B00090E07CDEF801C080D180CA14DB045CF4DC
:1003C000DED260E080E055D38BE791E0E5D2FFEF2D
:1003D000EF1AFF0A0DC0AC14BD0474F4D0D260E073
:1003E00080E047D382E891E0D7D22FEFE21AF20AF9
:1003F00080ED97E0E6D3CACF888199818F3FEFEFF8
:100400009E0721F0E816F9060CF0C0CFF982E882C9
:10041000BDCFB5D260E080E02CD38AE891E0BCD2B9
:1004200088EE93E0CED3ABD260E080E022D3B4017B
:10043000882777FD8095982FFDD260E083E019D35F
:1004400082E991E0A9D261E080E013D368817981EB
:10045000882777FD8095982FEDD288EE93E0B1D371
:10046000CDB7DEB7ECE045C4CF92DF92EF92FF92BA
:10047000CF93DF93EC01CA0148DFFC01E150F04863
:10048000EE0FFF1FEC0FFD1FC081D1816C01EE2428
:10049000D7FCE094FE2CCF3F8FEFD80771F46FD2DA
:1004A00060E080E0E6D2C701B601C4D261E080E03E
:1004B000E0D281E291E070D216C061D260E080E0CB
:1004C000D8D2C701B601B6D260E083E0D2D288E9C3
:1004D00091E062D261E080E0CCD2BE01882777FD56
:1004E0008095982FA7D280ED97E06BD3CE01DF9156
:1004F000CF91FF90EF90DF90CF900895EF92FF9211
:100500000F931F93CF93DF9300E010E0C0E0D0E0A3
:100510006CE3E62EF12C80E10AD3811134C02FD296
:1005200060E080E0A6D2C431D1051CF48EE991E0F0
:100530001AC0C832D1055CF43DD18C01BC018827BA
:1005400077FD8095982F76D286EA91E00CC0CC3367
:10055000D10554F4043981E118071CF089EA91E0CF
:1005600002C08EEA91E018D2CE010196B7013FD3C6
:10057000EC0161E080E07DD286EB91E00DD282E378
:1005800090E01FD3C8CF84EF91E01BD3CDB7DEB787
:10059000E6E0B5C3ACE2B0E0EFECF2E090C3AEDF72
:1005A00081E090E09CA78BA79AA789A7FE013196CE
:1005B0008E01075D1F4F5F012FEF3FEF21933193B6
:1005C000E017F107D9F7C12CD12C760129DE813053
:1005D000910519F5D4D160E080E04BD28EEB91E02B
:1005E000DBD161E080E045D286EC91E0D5D180E1BD
:1005F0007CD280E19CD2882331F08FEFC81AD80AD0
:10060000E80AF80AF6CFC701B601D5D3A801BE01A2
:10061000655D7F4FC50195DED9CF8230910539F4F4
:10062000A801BE01655D7F4FC5011EDFCFCF0397D7
:1006300069F6C501AADDCACFECE7F0E080818F7DC5
:1006400080830895811101C0F7CF80917C00806282
:1006500080937C00089580917C0085FB882780F939
:100660000895F9DF882321F08091790090E00895C2
:10067000809178009091790008958032A0F497E8F5
:1006800090937A0090917C00662311F0906C02C0E8
:100690009F779064907E982B90937C0080917A0055
:1006A000806480937A000895A0E0B0E0E9E5F3E08B
:1006B00008C3EB0160E0E1DF80917A0086FDFCCFAA
:1006C0008E01C12CD12C760180917A0080648093B8
:1006D0007A0080917A0086FDFCCFC3DFC80ED91E58
:1006E000E11CF11C015011090115110569F7CE013A
:1006F00096958795C034D10530F48C0D9D1DBE01B3
:1007000062D2CB010DC0A7019601280F391F411DF0
:10071000511DCA01B9019E0140E050E07BD2C901E0
:10072000CDB7DEB7E8E0E9C2CF92DF92EF92FF9259
:10073000A0910101B09102019C01AAD26B017C0140
:100740008ADF882359F0C701B60161587F4F8F4F68
:100750009F4F2FEF30E040E050E00AC0C701B601E4
:1007600061507E4F8F4F9F4F2FEF33E040E050E0BE
:1007700051D2C901FF90EF90DF90CF90089594DFA0
:10078000D3CF1F93CF93DF9366DF182F55DF6AE037
:1007900070E086E0F4DFEC01812F54DFCE01880F9A
:1007A000991F8C0F9D1F019696958795DF91CF918C
:1007B0001F910895E6CF089581E090E06F9364E083
:1007C0006A95F1F76F910197C9F708950F931F93F9
:1007D000CF93DF931AB157985A98289AC0E0D0E087
:1007E000EBDF5C9AE9DF09B15C98E6DF5C9AE4DF55
:1007F0005C98249607FF10C0AE0160E070E0809125
:10080000CE019091CF01A091D001B091D1014817B4
:1008100059076A077B0720F31AB9DF91CF911F911F
:100820000F91089595B1282F217030E0220F331FCA
:10083000482F467068E0469FA0011124242B9D7C20
:10084000292B25B99BB188708295807F9F77892B52
:100850008BB95C9AB1DF5C98AFCFA0E0B0E0E2E387
:10086000F4E030C2C82FD62EE42E8091E001811131
:1008700004C081E08093E0012AD0A8DF14B1D5B193
:10088000FAB00BB12898DD2011F05A9A01C05A989D
:1008900094B1926394B9579A81E0E81621F08C2FB5
:1008A00082958F70BFDF8C2F8F70BCDFFAB80BB9C9
:1008B00014B9D5B9CDB7DEB7E7E020C242E060E0B9
:1008C000CCCF42E061E0C9CF41E060E0C6CF80E13B
:1008D00097E2A0E0B0E08093CE019093CF01A09387
:1008E000D001B093D101529A209A549A8EE190E0AF
:1008F00068D183E0E9DF86E090E063D183E0E4DF64
:1009000082E090E05ED183E0DFDF82E090E059D1C9
:1009100082E0DADF82E090E054D188E2CFDF88E045
:10092000CDDF81E0CBDF86E0C9DF8CE0C7CF81E09F
:10093000C5DF8091D4019091D501892BF9F060E059
:10094000A0E2262F30E0709103018091040190E035
:100950000197789FA001799F500D11242417350726
:100960004CF4E091D401F091D501E20FF31FA08384
:100970006F5FE7CF1092D2011092D3010895D7CFC5
:100980000895CF93DF93EC018991882311F099DFCB
:10099000FBCFDF91CF910895F4CF0895AAE0B0E0A6
:1009A000E3EDF4E08EC11AE05AE0C52ED12CE12C23
:1009B000F12C062FA70196012DD1CA01B9011150C2
:1009C000E1E0F0E0EC0FFD1FE10FF11D005D2AE01A
:1009D000629F00191124008361157105810591053D
:1009E00041F71A3050F4E1E0F0E0EC0FFD1FE10FA9
:1009F000F11D808166DF1F5FF4CF2A96E8E07DC19C
:100A0000CF92DF92EF92FF926B017C0197FF0AC0B9
:100A1000F094E094D094C094C11CD11CE11CF11C52
:100A20008DE24FDFC701B601B9DFFF90EF90DF9095
:100A3000CF900895E5CF0895A5E0B0E0E1E2F5E0BC
:100A400045C1182F80E8898380EC8A8384E98B83F1
:100A500084ED8C83FE01E60FF11D8181810F6D8392
:100A60002DDF1093D2016D816093D3012596E3E0D1
:100A700049C1E2CF089584B18D7C84B985B1826388
:100A800085B985E090E06F9364E06A95F1F76F9126
:100A90000197C9F708958091E101811104C081E0B7
:100AA0008093E101E8CF08951F93CF93DF93182F30
:100AB000F2DFC12FD0E023B130E0209530952C2318
:100AC0003D23232BC1F38AE090E07BD023B130E0BB
:100AD000209530952C233D23232B69F383B18095FA
:100AE0008123DF91CF911F910895DECF0895CF9399
:100AF000C82FD1DF83B18C23E9F38AE090E061D085
:100B000083B18C23B9F383B18C23CF910895EFCFB8
:100B10000895A1E0B0E0EEE8F5E0D9C08983BBDF3D
:100B200093B19095898189232196E2E0ECC0F1CFC1
:100B300008952F928F939F932FB68091DD0190910E
:100B4000DE0101968093DD019093DE0190E08091BB
:100B5000DF01891F8093DF019091D7019C5F909303
:100B6000D7018091D60180519742C0F09093D70170
:100B70008093D6018091D8019091D90101968093FC
:100B8000D8019093D90190E08091DA01891F809378
:100B9000DA018091DB01891F8093DB012FBE9F91D9
:100BA0008F912F90189528EE33E0019748F0F901C6
:100BB0006F9364E06A95F1F76F913197C9F7F5CFBC
:100BC0000895F1CF0895AA1BBB1B51E107C0AA1FCE
:100BD000BB1FA617B70710F0A61BB70B881F991FDE
:100BE0005A95A9F780959095BC01CD01089597FB82
:100BF000072E16F4009406D077FD08D0E4DF07FC3A
:100C000005D03EF4909581959F4F0895709561951C
:100C10007F4F0895A1E21A2EAA1BBB1BFD010DC038
:100C2000AA1FBB1FEE1FFF1FA217B307E407F5079C
:100C300020F0A21BB30BE40BF50B661F771F881F78
:100C4000991F1A9469F760957095809590959B010E
:100C5000AC01BD01CF010895052E97FB16F4009459
:100C60000FD057FD05D0D6DF07FC02D046F408C0F0
:100C700050954095309521953F4F4F4F5F4F0895C8
:100C800090958095709561957F4F8F4F9F4F0895F8
:100C9000A29FB001B39FC001A39F700D811D1124BD
:100CA000911DB29F700D811D1124911D08952F92E9
:100CB0003F924F925F926F927F928F929F92AF92EC
:100CC000BF92CF92DF92EF92FF920F931F93CF9339
:100CD000DF93CDB7DEB7CA1BDB0B0FB6F894DEBFD0
:100CE0000FBECDBF09942A88398848885F846E84F6
:100CF0007D848C849B84AA84B984C884DF80EE8040
:100D0000FD800C811B81AA81B981CE0FD11D0FB648
:100D1000F894DEBF0FBECDBFED0108958F929F9274
:100D2000AF92BF92CF92DF92EF92FF92CF93DF9379
:100D3000EC01688179818A819B816115710581054A
:100D4000910521F464E279ED8BE597E02DE133EF35
:100D500041E050E081DF49015A019B01AC01A7EA63
:100D6000B1E432D06B017C01ACEEB4EFA50194018B
:100D700037D0C60ED71EE81EF91EF7FE06C081E06A
:100D8000C81AD108E10880E8F80AC882D982EA8244
:100D9000FB82C701B6019F77DF91CF91FF90EF9063
:100DA000DF90CF90BF90AF909F908F900895B6CF77
:100DB0008BE091E0B3CF60930B0170930C018093B3
:100DC0000D0190930E01089563DFA59F900DB49FD0
:100DD000900DA49F800D911D11240895B7FFF4CFAD
:0C0DE000F3DF821B930B0895F894FFCF03
:100DEC0001881308020000E2012000010000003C11
:100DFC002020202020203E00546F7053636F7265BA
:100E0C00004E4F2047414D455300504C41594544ED
:100E1C0000486F6C6400427574746F6E00466F729C
:100E2C000043686F69636500422E2055736572003C
:100E3C004265737400432E204869676800412E2078
:100E4C00506C61790047616D6500456E7465722068
:100E5C00494400477565737320230032206C6F770B
:100E6C0021003220686967682100436F72726563E4
:100E7C007400426573743A00424553543A0042611F
:100E8C00742043686B006D56004F6B61790052659E
:100E9C00706C616365005072657373204200505230
:0E0EAC00455353204200544F20504C415900F2
:00000001FF
