:1000000034C000004EC000004CC000004AC00000D8
:1000100048C0000046C0000044C0000042C00000CC
:1000200040C0000033C400003CC000003AC00000E3
:1000300038C0000036C0000034C0000032C00000EC
:1000400030C000002EC000002CC000002AC00000FC
:1000500028C0000026C0000024C0000022C000000C
:1000600020C000001EC00000F90411241FBECFEF05
:10007000D8E0DEBFCDBF11E0A0E0B1E0E2EDF2E1FB
:1000800002C005900D92A836B107D9F721E0A8E685
:10009000B1E001C01D92A53CB207E1F7EFD00C948E
:1000A0005D09AECF809100018F5F809300010895BC
:1000B000EF92FF920F931F93CF93DF9300E010E036
:1000C000C0E0D0E08CE3E82EF12C80E1DDD381119B
:1000D00034C0FBD260E080E072D3C431D1051CF49F
:1000E00080E191E01AC0C832D1055CF409D28C01DC
:1000F000BC01882777FD8095982F42D388E191E055
:100100000CC0CC33D10554F4043981E118071CF03C
:100110008BE191E002C080E291E0E4D2CE01019651
:10012000B70123D7EC0161E080E049D388E291E098
:10013000D9D282E390E0F2D3C8CF84EF91E0EED33E
:10014000CDB7DEB7E6E07DC7A8ECB0E0E9EAF0E0C5
:100150005AC7FE01319683E090E07F01819391932D
:1001600002968B3C9105D1F7B0D260E080E027D3B6
:1001700080E391E0B7D261E080E021D387E391E0B2
:10018000B1D280ED97E0CAD300E010E080E17CD3EB
:100190006801CC0CDD1C81112EC097D260E083E099
:1001A0000ED3F701EC0DFD1D60817181882777FD6D
:1001B0008095982FE5D261E080E001D38EE391E055
:1001C00091D282E361D3823039F40150110910F4E5
:1001D00000E010E082E00AC0803249F40F5F1F4F58
:1001E0000436110514F003E610E080E234D382E314
:1001F00090E094D3CBCFF701EC0DFD1D8081918170
:10020000C853DF4FE8E01BC7AAE0B0E0E9E0F1E047
:1002100000C761E0CE010196BAD38D819E812A96F6
:10022000E2E013C70F931F93CF93DF93DC01129685
:1002300021E030E026173707E4F44D915C911197E7
:10024000F9013197ED01F7FD09C01A910A914017A4
:10025000510720F41B830A833197F5CF3196EE0FB7
:10026000FF1FE80FF91F518340832F5F3F4F129606
:10027000E1CFDF91CF911F910F910895A0E0B0E001
:10028000E3E4F1E0BCC614DF80ED97E0B0D35CDFBF
:100290008C01880F991FEAD6EC01009709F462C01F
:1002A00014D260E080E08BD2B801882777FD80957A
:1002B000982F66D287E491E015D261E080E07FD28A
:1002C0008DE491E00FD280ED97E028D34E01C12C50
:1002D000D12C7601FFEFCF1ADF0AEF0AFF0AC60121
:1002E000019780179107F4F4F0D186E591E0FAD1F7
:1002F000C701B60145D261E080E061D288E291E0B9
:10030000F1D180E1B1D280DF5C01DFD1B50180E0C5
:1003100090E036D288EE93E001D3F401A192B1923D
:100320004F01D8CFB801CE017DDF17FF02C00F5FAC
:100330001F4FF801EE7FEC0FFD1F00811181C5D129
:100340008BE591E0CFD1B80180E090E019D261E077
:1003500080E035D288E291E0C5D180E185D2CE013E
:100360001DD795CFB2D160E080E029D280E691E040
:10037000B9D161E080E023D288E291E0B3D180E19D
:1003800073D285CFECE7F0E080818F7D8083089584
:10039000811101C0F7CF80917C00806280937C0046
:1003A000089580917C0085FB882780F90895F9DF06
:1003B000882321F08091790090E008958091780061
:1003C0009091790008958032A0F497E890937A0094
:1003D00090917C00662311F0906C02C09F7790642E
:1003E000907E982B90937C0080917A00806480931B
:1003F0007A000895A0E0B0E0EFEFF1E004C6EB0171
:1004000060E0E1DF80917A0086FDFCCF8E01C12C97
:10041000D12C760180917A00806480937A0080915B
:100420007A0086FDFCCFC3DFC80ED91EE11CF11C8B
:10043000015011090115110569F7CE0196958795AF
:10044000C034D10530F48C0D9D1DBE017AD5CB0191
:100450000DC0A7019601280F391F411D511DCA016A
:10046000B9019E0140E050E093D5C901CDB7DEB798
:10047000E8E0E5C5CF92DF92EF92FF92A0910101F3
:10048000B09102019C01A6D56B017C018ADF882313
:1004900059F0C701B60161587F4F8F4F9F4F2FEF23
:1004A00030E040E050E00AC0C701B60161507E4F25
:1004B0008F4F9F4F2FEF33E040E050E069D5C901E7
:1004C000FF90EF90DF90CF90089594DFD3CF1F93EC
:1004D000CF93DF9366DF182F55DF6AE070E086E088
:1004E000F4DFEC01812F54DFCE01880F991F8C0FB0
:1004F0009D1F019696958795DF91CF911F91089545
:10050000E6CF089581E090E06F9364E06A95F1F79B
:100510006F910197C9F708950F931F93CF93DF93BE
:100520001AB157985A98289AC0E0D0E0EBDF5C9A4D
:10053000E9DF09B15C98E6DF5C9AE4DF5C98249619
:1005400007FF10C0AE0160E070E0809168019091FB
:100550006901A0916A01B0916B01481759076A07B8
:100560007B0720F31AB9DF91CF911F910F91089566
:1005700095B1282F217030E0220F331F482F46708D
:1005800068E0469FA0011124242B9D7C292B25B9CE
:100590009BB188708295807F9F77892B8BB95C9AFD
:1005A000B1DF5C98AFCFA0E0B0E0E8EDF2E02CC5A1
:1005B000C82FD62EE42E8091BE01811104C081E0A7
:1005C0008093BE012AD0A8DF14B1D5B1FAB00BB127
:1005D0002898DD2011F05A9A01C05A9894B192637C
:1005E00094B9579A81E0E81621F08C2F82958F708C
:1005F000BFDF8C2F8F70BCDFFAB80BB914B9D5B937
:10060000CDB7DEB7E7E01CC542E060E0CCCF42E00A
:1006100061E0C9CF41E060E0C6CF80E197E2A0E0B1
:10062000B0E08093680190936901A0936A01B09350
:100630006B01529A209A549A8EE190E06FD183E038
:10064000E9DF86E090E06AD183E0E4DF82E090E0D9
:1006500065D183E0DFDF82E090E060D182E0DADF25
:1006600082E090E05BD188E2CFDF88E0CDDF81E0FF
:10067000CBDF86E0C9DF8CE0C7CF81E0C5DF8091AA
:100680006E0190916F01892BF9F060E0A0E2262FB6
:1006900030E0709103018091040190E00197789F10
:1006A000A001799F500D1124241735074CF4E091D7
:1006B0006E01F0916F01E20FF31FA0836F5FE7CF30
:1006C00010926C0110926D010895D7CF0895CF93C9
:1006D000DF93EC018991882311F099DFFBCFDF9143
:1006E000CF910895F4CF0895AAE0B0E0E9E7F3E0F0
:1006F0008AC41AE05AE0C52ED12CE12CF12C062F29
:10070000A701960145D4CA01B9011150E1E0F0E01A
:10071000EC0FFD1FE10FF11D005D2AE0629F001943
:1007200011240083611571058105910541F71A3087
:1007300050F4E1E0F0E0EC0FFD1FE10FF11D8081CE
:1007400066DF1F5FF4CF2A96E8E079C4CF92DF928C
:10075000EF92FF926B017C0197FF0AC0F094E09446
:10076000D094C094C11CD11CE11CF11C8DE24FDF60
:10077000C701B601B9DFFF90EF90DF90CF900895E9
:10078000E5CF0895A5E0B0E0E7ECF3E041C4182F11
:1007900080E8898380EC8A8384E98B8384ED8C8371
:1007A000FE01E60FF11D8181810F6D832DDF109316
:1007B0006C016D8160936D012596E3E045C4E2CF45
:1007C000089584B18D7C84B985B1826385B985E053
:1007D00090E06F9364E06A95F1F76F910197C9F724
:1007E00008958091BF01811104C081E08093BF0111
:1007F000E8CF08951F93CF93DF93182FF2DFC12F17
:10080000D0E023B130E0209530952C233D23232BDD
:10081000C1F38AE090E082D023B130E0209530959A
:100820002C233D23232B69F383B180958123DF9112
:10083000CF911F910895CF93C82FD3DF83B18C231D
:10084000E9F38AE090E06AD083B18C23B9F383B1F5
:100850008C23CF910895EFCF0895CF93CBDFC82F8E
:10086000EADF8C2FCF910895F8CF0895A1E0B0E092
:10087000EBE3F4E0CEC38983B4DF93B19095898133
:1008800089232196E2E0E1C3F1CF08952F928F935F
:100890009F932FB680917701909178010196809374
:1008A00077019093780190E080917901891F80937E
:1008B0007901909171019C5F909371018091700119
:1008C00080519742C0F090937101809370018091A4
:1008D000720190917301019680937201909373015C
:1008E00090E080917401891F80937401809175015B
:1008F000891F809375012FBE9F918F912F9018951E
:1009000028EE33E0019748F0F9016F9364E06A95AF
:10091000F1F76F913197C9F7F5CF0895F1CF0895A9
:10092000E0E7F0E080818E7F8083A0EBB0E08C91E7
:1009300083608C93A1EBB0E08C91807F8C938C9141
:1009400082608C93B89A80818160808378940895C6
:100950008091C001811104C081E08093C001E0CF8B
:100960000895F6DFE0E7F0E080818E7F80831092CB
:10097000720110927301109274011092750110921D
:100980007101109270018081816080830895462FEB
:10099000BC018AE791E067C20F93CF93DF9300D049
:1009A00000D01F92CDB7DEB79C0185E0EBE0F1E00F
:1009B000DE01119601900D928A95E1F7662311F000
:1009C0000FEF01C003E145E0BE016F5F7F4F8AE793
:1009D00091E0A8D08AE791E07ED0C3DF0F900F901E
:1009E0000F900F900F90DF91CF910F91089560E0DD
:1009F000D3CF8AE791E08BC26F9364E06A95F1F7F9
:100A00006F910197C9F70895FC011182108213823A
:100A10001282158214821682683068F489E290E0AE
:100A2000918380838BE290E0938382838AE290E0DB
:100A3000958384831FC06E3070F483E290E09183CD
:100A4000808385E290E09383828384E290E09583C3
:100A5000848368500FC0653198F486E290E09183FA
:100A6000808388E290E09383828387E290E095839D
:100A700084836E5081E001C0880F6A95EAF786830F
:100A80000895A7E0B0E0E6E4F5E0C1C28C01FC0106
:100A900011821082138212821582148217821682AA
:100AA000613118F080E1808702C0FC016087F801A5
:100AB000208B642FCE010196A7DF8F81F8018187FB
:100AC0008B819C81938782878D819E819587848786
:100AD0002796E4E0B8C2FC01A485B585109771F0B3
:100AE0008C919185892B8C93A285B3859C9181856E
:100AF000809589238C9388EC90E07ECF0895FC014B
:100B0000A485B585109769F08C919185892B8C937C
:100B1000A285B3858C919185892B8C9388EC90E08C
:100B20006BCF0895A7E0B0E0E7E9F5E065C27C018E
:100B30004B01642F3901402F20E0A3DF87010F5BB9
:100B40001F4FF80110826701F2E4CF0ED11CF601AD
:100B500010825701F3E4AF0EB11CF5011082F701CA
:100B600077866686512CF7018085581648F5652CE6
:100B7000712CF401E60DF71D6081CE01019644DF72
:100B80002F81F701E60DF71D218B89819A81F301F1
:100B9000EE0FFF1FEE0DFF1D92A381A3833291057F
:100BA00011F4F80108C08632910511F4F60103C072
:100BB000899721F4F5018081822B80835394D3CFD0
:100BC0002796EFE035C2A0E0B0E0E8EEF5E016C20F
:100BD000EC015B016C0181E4C80ED11CF601808040
:100BE0007E01F2E4EF0EF11CF70170808E010D5BC7
:100BF0001F4FF801908080E09885891748F4F5012F
:100C0000E80FF11DE80FF11D118210828F5FF4CF04
:100C100084B1F6019081892B84B987B1F701908165
:100C2000892B87B98AB1F8019081892B8AB985B15E
:100C3000F6019081892B85B988B1F7019081892BC4
:100C400088B98BB1F8019081892B8BB98AE090E04B
:100C5000D3DE94B1F60180818095892384B997B160
:100C6000F70180818095892387B99AB1F801808145
:100C7000809589238AB995B1F60180818095892371
:100C800085B998B1F70180818095892388B99BB196
:100C9000F8018081809589238BB9E090B000D090D5
:100CA000B1008091B00083608093B00082E08093B7
:100CB000B1004091B20080E090E02E853F85821720
:100CC000930720F5C090B2002C2D241B820F911D9C
:100CD00003B1081132C0F6B0F7102FC029B12911A5
:100CE0002CC010C0212F30E0A901440F551FF50181
:100CF000E40FF51F60817181672B21F11F5F28854B
:100D0000121780F37F2C802E4C2DD7CFE092B000AD
:100D1000D092B10020E08885281730F5F501E20F68
:100D2000F11DE20FF11D80819181892B21F48E85C7
:100D30009F85918380832F5FEECF03B1F6B099B08A
:100D400010E0DDCFDE01A40FB51F91960D90BC9190
:100D5000A02D4C91DE01A20FB31F51962C9142237E
:100D600069F691838083CACFCDB7DEB7EDE062C16B
:100D7000EF92FF920F931F93CF93DF93FC019B01A0
:100D8000F0907C0000917A0047B118B180917A0010
:100D900086FDFCCF80E09085891748F4D901A80F23
:100DA000B11DA80FB11D1D921C928F5FF4CF97B19A
:100DB00082A18095892387B998B182A180958923E2
:100DC00088B987E880937A00E12C81A1E81610F0B9
:100DD000E12C29C050E08085581718F5A52FB0E008
:100DE000EF01CA0FDB1F8989806480937C008091AA
:100DF0007A00806480937A0080917A0086FDFCCF2F
:100E00006091780070917900AA0FBB1FA20FB31FE9
:100E10008D919C911197860F971F8D939C935F5F87
:100E2000DACFE394D2CF8085E81698F4E901CE0DAD
:100E3000D11DCE0DD11D61A170E0CB019595879597
:100E4000A881B9818A0F9B1F7CD079836883E39442
:100E5000EACFF0927C0000937A0018B947B9CDB779
:100E6000DEB7E6E0EEC0A0E2B0E0E8E3F7E0CCC039
:100E70008C017B01D42E8FEF840F823010F4C801D7
:100E80003EDED80150968C91B70181110DC0C8018A
:100E90009ADEC80120DEB2E0DB1236C0BE016F5F11
:100EA0007F4FC80190DE0CC0C80162DFC80113DEAD
:100EB000E2E0DE1229C0BE016F5F7F4FC80158DF3C
:100EC00040E0F80180854817F8F4842F90E0880FFF
:100ED000991FF701E80FF91F21E030E02C0F3D1FAB
:100EE000820F931FD8011E962D913C911F97DC0114
:100EF0008D919C91281B390B80819181820F931FCA
:100F0000918380834F5FDDCFA096E7E099C0CF93B8
:100F1000DF93EC018A819B81009709F03FD18E819C
:100F20009F81009709F03AD188819981009709F053
:100F300035D18C819D81009709F030D1DF91CF911F
:100F40000895AA1BBB1B51E107C0AA1FBB1FA61710
:100F5000B70710F0A61BB70B881F991F5A95A9F762
:100F600080959095BC01CD01089597FB072E16F44E
:100F7000009406D077FD08D0E4DF07FC05D03EF4EE
:100F8000909581959F4F0895709561957F4F089535
:100F9000A1E21A2EAA1BBB1BFD010DC0AA1FBB1F7D
:100FA000EE1FFF1FA217B307E407F50720F0A21BEF
:100FB000B30BE40BF50B661F771F881F991F1A945C
:100FC00069F760957095809590959B01AC01BD0186
:100FD000CF010895A29FB001B39FC001A39F700DE0
:100FE000811D1124911DB29F700D811D1124911D31
:100FF00008952F923F924F925F926F927F928F92BD
:101000009F92AF92BF92CF92DF92EF92FF920F9397
:101010001F93CF93DF93CDB7DEB7CA1BDB0B0FB6A1
:10102000F894DEBF0FBECDBF09942A88398848885E
:101030005F846E847D848C849B84AA84B984C884F4
:10104000DF80EE80FD800C811B81AA81B981CE0FEB
:10105000D11D0FB6F894DEBF0FBECDBFED010895D0
:10106000EE0FFF1F0590F491E02D0994CF93DF93CD
:101070008230910510F482E090E0E091C301F0919C
:10108000C40120E030E0A0E0B0E0309739F14081C9
:10109000518148175907B8F04817590771F48281F0
:1010A0009381109729F013969C938E9312972CC0DE
:1010B0009093C4018093C30127C02115310531F0FD
:1010C0004217530718F0A901DB0101C0EF019A0193
:1010D000BD01DF010280F381E02DD7CF211531055D
:1010E000F9F0281B390B2430310580F48A819B816B
:1010F0006115710521F0FB019383828304C09093F5
:10110000C4018093C301FE01329644C0FE01E20F88
:10111000F31F8193919322503109398328833AC078
:101120002091C1013091C201232B41F4209107018C
:10113000309108013093C2012093C1012091050133
:10114000309106012115310541F42DB73EB740918C
:10115000090150910A01241B350BE091C101F09166
:10116000C201E217F307A0F42E1B3F0B2817390723
:1011700078F0AC014E5F5F4F2417350748F04E0FF3
:101180005F1F5093C2014093C1018193919302C0AC
:10119000E0E0F0E0CF01DF91CF910895CF93DF93AE
:1011A000009709F487C0FC01329713821282C09124
:1011B000C301D091C401209781F420813181280F8F
:1011C000391F8091C1019091C2018217930779F56F
:1011D000F093C201E093C1016DC0DE0120E030E078
:1011E000AE17BF0750F412964D915C9113979D0175
:1011F0004115510509F1DA01F3CFB383A283408190
:101200005181840F951F8A179B0771F48D919C91D2
:101210001197840F951F02969183808312968D916A
:101220009C911397938382832115310529F4F093C0
:10123000C401E093C3013EC0D9011396FC93EE9321
:1012400012974D915D91A40FB51FEA17FB0779F432
:1012500080819181840F951F0296D90111969C93EC
:101260008E938281938113969C938E931297E0E0E4
:10127000F0E08A819B81009719F0FE01EC01F9CF23
:10128000CE01029628813981820F931F2091C101DE
:101290003091C2012817390769F4309729F4109268
:1012A000C4011092C30102C013821282D093C20102
:1012B000C093C101DF91CF91089510E0C8E6D0E05E
:1012C00003C0FE01CFDE2296CA36D107D1F7F894CB
:0212D000FFCF4E
:1012D20001881308020000C50120000E0F10111230
:1012E2004241542043484B006D56004F4B41590038
:1012F2005245504C41434500505245535320420001
:1013020053454C454354004E554D424552003C20F6
:10131200202A2A20203E002053454E5300524541A8
:1013220044494E4753004E554D20004D203D20006C
:081332004E4F204D454D000017
:00000001FF
